{
  "contractName": "XDVToken",
  "abi": [
    {
      "inputs": [
        {
          "internalType": "address",
          "name": "tokenERC20",
          "type": "address"
        },
        {
          "internalType": "address",
          "name": "newPaymentAddress",
          "type": "address"
        }
      ],
      "stateMutability": "nonpayable",
      "type": "constructor"
    },
    {
      "anonymous": false,
      "inputs": [
        {
          "indexed": true,
          "internalType": "address",
          "name": "owner",
          "type": "address"
        },
        {
          "indexed": true,
          "internalType": "address",
          "name": "approved",
          "type": "address"
        },
        {
          "indexed": true,
          "internalType": "uint256",
          "name": "tokenId",
          "type": "uint256"
        }
      ],
      "name": "Approval",
      "type": "event"
    },
    {
      "anonymous": false,
      "inputs": [
        {
          "indexed": true,
          "internalType": "address",
          "name": "owner",
          "type": "address"
        },
        {
          "indexed": true,
          "internalType": "address",
          "name": "operator",
          "type": "address"
        },
        {
          "indexed": false,
          "internalType": "bool",
          "name": "approved",
          "type": "bool"
        }
      ],
      "name": "ApprovalForAll",
      "type": "event"
    },
    {
      "anonymous": false,
      "inputs": [
        {
          "indexed": true,
          "internalType": "address",
          "name": "user",
          "type": "address"
        },
        {
          "indexed": true,
          "internalType": "string",
          "name": "userDid",
          "type": "string"
        },
        {
          "indexed": false,
          "internalType": "string",
          "name": "documentURI",
          "type": "string"
        },
        {
          "indexed": false,
          "internalType": "uint256",
          "name": "id",
          "type": "uint256"
        }
      ],
      "name": "DocumentAnchored",
      "type": "event"
    },
    {
      "anonymous": false,
      "inputs": [
        {
          "indexed": true,
          "internalType": "address",
          "name": "minter",
          "type": "address"
        },
        {
          "indexed": false,
          "internalType": "string",
          "name": "name",
          "type": "string"
        }
      ],
      "name": "MinterRegistered",
      "type": "event"
    },
    {
      "anonymous": false,
      "inputs": [
        {
          "indexed": true,
          "internalType": "address",
          "name": "previousOwner",
          "type": "address"
        },
        {
          "indexed": true,
          "internalType": "address",
          "name": "newOwner",
          "type": "address"
        }
      ],
      "name": "OwnershipTransferred",
      "type": "event"
    },
    {
      "anonymous": false,
      "inputs": [
        {
          "indexed": false,
          "internalType": "address",
          "name": "account",
          "type": "address"
        }
      ],
      "name": "Paused",
      "type": "event"
    },
    {
      "anonymous": false,
      "inputs": [
        {
          "indexed": true,
          "internalType": "uint256",
          "name": "tokenId",
          "type": "uint256"
        },
        {
          "indexed": true,
          "internalType": "address",
          "name": "from",
          "type": "address"
        },
        {
          "indexed": true,
          "internalType": "address",
          "name": "paymentAddress",
          "type": "address"
        },
        {
          "indexed": false,
          "internalType": "uint256",
          "name": "paidToContract",
          "type": "uint256"
        },
        {
          "indexed": false,
          "internalType": "uint256",
          "name": "paidToPaymentAddress",
          "type": "uint256"
        }
      ],
      "name": "ServiceFeePaid",
      "type": "event"
    },
    {
      "anonymous": false,
      "inputs": [
        {
          "indexed": true,
          "internalType": "address",
          "name": "from",
          "type": "address"
        },
        {
          "indexed": true,
          "internalType": "address",
          "name": "to",
          "type": "address"
        },
        {
          "indexed": true,
          "internalType": "uint256",
          "name": "tokenId",
          "type": "uint256"
        }
      ],
      "name": "Transfer",
      "type": "event"
    },
    {
      "anonymous": false,
      "inputs": [
        {
          "indexed": false,
          "internalType": "address",
          "name": "account",
          "type": "address"
        }
      ],
      "name": "Unpaused",
      "type": "event"
    },
    {
      "anonymous": false,
      "inputs": [
        {
          "indexed": true,
          "internalType": "address",
          "name": "paymentAddress",
          "type": "address"
        },
        {
          "indexed": false,
          "internalType": "uint256",
          "name": "amount",
          "type": "uint256"
        }
      ],
      "name": "Withdrawn",
      "type": "event"
    },
    {
      "inputs": [
        {
          "internalType": "address",
          "name": "to",
          "type": "address"
        },
        {
          "internalType": "uint256",
          "name": "tokenId",
          "type": "uint256"
        }
      ],
      "name": "approve",
      "outputs": [],
      "stateMutability": "nonpayable",
      "type": "function"
    },
    {
      "inputs": [
        {
          "internalType": "address",
          "name": "owner",
          "type": "address"
        }
      ],
      "name": "balanceOf",
      "outputs": [
        {
          "internalType": "uint256",
          "name": "",
          "type": "uint256"
        }
      ],
      "stateMutability": "view",
      "type": "function"
    },
    {
      "inputs": [
        {
          "internalType": "uint256",
          "name": "tokenId",
          "type": "uint256"
        }
      ],
      "name": "burn",
      "outputs": [],
      "stateMutability": "nonpayable",
      "type": "function"
    },
    {
      "inputs": [
        {
          "internalType": "uint256",
          "name": "",
          "type": "uint256"
        }
      ],
      "name": "fileUri",
      "outputs": [
        {
          "internalType": "string",
          "name": "",
          "type": "string"
        }
      ],
      "stateMutability": "view",
      "type": "function"
    },
    {
      "inputs": [
        {
          "internalType": "uint256",
          "name": "tokenId",
          "type": "uint256"
        }
      ],
      "name": "getApproved",
      "outputs": [
        {
          "internalType": "address",
          "name": "",
          "type": "address"
        }
      ],
      "stateMutability": "view",
      "type": "function"
    },
    {
      "inputs": [
        {
          "internalType": "address",
          "name": "owner",
          "type": "address"
        },
        {
          "internalType": "address",
          "name": "operator",
          "type": "address"
        }
      ],
      "name": "isApprovedForAll",
      "outputs": [
        {
          "internalType": "bool",
          "name": "",
          "type": "bool"
        }
      ],
      "stateMutability": "view",
      "type": "function"
    },
    {
      "inputs": [
        {
          "internalType": "bytes32",
          "name": "hash",
          "type": "bytes32"
        },
        {
          "internalType": "bytes",
          "name": "signature",
          "type": "bytes"
        }
      ],
      "name": "isValidSignature",
      "outputs": [
        {
          "internalType": "bytes4",
          "name": "magicValue",
          "type": "bytes4"
        }
      ],
      "stateMutability": "view",
      "type": "function"
    },
    {
      "inputs": [
        {
          "internalType": "address",
          "name": "",
          "type": "address"
        }
      ],
      "name": "minterCounter",
      "outputs": [
        {
          "internalType": "uint256",
          "name": "",
          "type": "uint256"
        }
      ],
      "stateMutability": "view",
      "type": "function"
    },
    {
      "inputs": [
        {
          "internalType": "address",
          "name": "",
          "type": "address"
        }
      ],
      "name": "minterDocumentRequestCounter",
      "outputs": [
        {
          "internalType": "uint256",
          "name": "",
          "type": "uint256"
        }
      ],
      "stateMutability": "view",
      "type": "function"
    },
    {
      "inputs": [
        {
          "internalType": "address",
          "name": "",
          "type": "address"
        },
        {
          "internalType": "uint256",
          "name": "",
          "type": "uint256"
        }
      ],
      "name": "minterDocumentRequests",
      "outputs": [
        {
          "internalType": "address",
          "name": "user",
          "type": "address"
        },
        {
          "internalType": "string",
          "name": "userDid",
          "type": "string"
        },
        {
          "internalType": "address",
          "name": "toMinter",
          "type": "address"
        },
        {
          "internalType": "string",
          "name": "toMinterDid",
          "type": "string"
        },
        {
          "internalType": "string",
          "name": "documentURI",
          "type": "string"
        },
        {
          "internalType": "uint256",
          "name": "status",
          "type": "uint256"
        },
        {
          "internalType": "uint256",
          "name": "timestamp",
          "type": "uint256"
        },
        {
          "internalType": "string",
          "name": "description",
          "type": "string"
        }
      ],
      "stateMutability": "view",
      "type": "function"
    },
    {
      "inputs": [],
      "name": "name",
      "outputs": [
        {
          "internalType": "string",
          "name": "",
          "type": "string"
        }
      ],
      "stateMutability": "view",
      "type": "function"
    },
    {
      "inputs": [],
      "name": "owner",
      "outputs": [
        {
          "internalType": "address",
          "name": "",
          "type": "address"
        }
      ],
      "stateMutability": "view",
      "type": "function"
    },
    {
      "inputs": [
        {
          "internalType": "uint256",
          "name": "tokenId",
          "type": "uint256"
        }
      ],
      "name": "ownerOf",
      "outputs": [
        {
          "internalType": "address",
          "name": "",
          "type": "address"
        }
      ],
      "stateMutability": "view",
      "type": "function"
    },
    {
      "inputs": [],
      "name": "paused",
      "outputs": [
        {
          "internalType": "bool",
          "name": "",
          "type": "bool"
        }
      ],
      "stateMutability": "view",
      "type": "function"
    },
    {
      "inputs": [],
      "name": "paymentAddress",
      "outputs": [
        {
          "internalType": "address",
          "name": "",
          "type": "address"
        }
      ],
      "stateMutability": "view",
      "type": "function"
    },
    {
      "inputs": [
        {
          "internalType": "string",
          "name": "name",
          "type": "string"
        },
        {
          "internalType": "address",
          "name": "paymentAddress",
          "type": "address"
        },
        {
          "internalType": "bool",
          "name": "userHasKyc",
          "type": "bool"
        },
        {
          "internalType": "uint256",
          "name": "feeStructure",
          "type": "uint256"
        }
      ],
      "name": "registerMinter",
      "outputs": [
        {
          "internalType": "uint256",
          "name": "",
          "type": "uint256"
        }
      ],
      "stateMutability": "nonpayable",
      "type": "function"
    },
    {
      "inputs": [],
      "name": "renounceOwnership",
      "outputs": [],
      "stateMutability": "nonpayable",
      "type": "function"
    },
    {
      "inputs": [
        {
          "internalType": "string",
          "name": "minterDid",
          "type": "string"
        },
        {
          "internalType": "address",
          "name": "minterAddress",
          "type": "address"
        },
        {
          "internalType": "string",
          "name": "userDid",
          "type": "string"
        },
        {
          "internalType": "string",
          "name": "documentURI",
          "type": "string"
        },
        {
          "internalType": "string",
          "name": "description",
          "type": "string"
        }
      ],
      "name": "requestDataProviderService",
      "outputs": [
        {
          "internalType": "uint256",
          "name": "",
          "type": "uint256"
        }
      ],
      "stateMutability": "nonpayable",
      "type": "function"
    },
    {
      "inputs": [
        {
          "internalType": "address",
          "name": "from",
          "type": "address"
        },
        {
          "internalType": "address",
          "name": "to",
          "type": "address"
        },
        {
          "internalType": "uint256",
          "name": "tokenId",
          "type": "uint256"
        }
      ],
      "name": "safeTransferFrom",
      "outputs": [],
      "stateMutability": "nonpayable",
      "type": "function"
    },
    {
      "inputs": [
        {
          "internalType": "address",
          "name": "from",
          "type": "address"
        },
        {
          "internalType": "address",
          "name": "to",
          "type": "address"
        },
        {
          "internalType": "uint256",
          "name": "tokenId",
          "type": "uint256"
        },
        {
          "internalType": "bytes",
          "name": "_data",
          "type": "bytes"
        }
      ],
      "name": "safeTransferFrom",
      "outputs": [],
      "stateMutability": "nonpayable",
      "type": "function"
    },
    {
      "inputs": [],
      "name": "serviceFeeForContract",
      "outputs": [
        {
          "internalType": "uint256",
          "name": "",
          "type": "uint256"
        }
      ],
      "stateMutability": "view",
      "type": "function"
    },
    {
      "inputs": [],
      "name": "serviceFeeForPaymentAddress",
      "outputs": [
        {
          "internalType": "uint256",
          "name": "",
          "type": "uint256"
        }
      ],
      "stateMutability": "view",
      "type": "function"
    },
    {
      "inputs": [
        {
          "internalType": "address",
          "name": "operator",
          "type": "address"
        },
        {
          "internalType": "bool",
          "name": "approved",
          "type": "bool"
        }
      ],
      "name": "setApprovalForAll",
      "outputs": [],
      "stateMutability": "nonpayable",
      "type": "function"
    },
    {
      "inputs": [],
      "name": "stablecoin",
      "outputs": [
        {
          "internalType": "contract IERC20",
          "name": "",
          "type": "address"
        }
      ],
      "stateMutability": "view",
      "type": "function"
    },
    {
      "inputs": [],
      "name": "symbol",
      "outputs": [
        {
          "internalType": "string",
          "name": "",
          "type": "string"
        }
      ],
      "stateMutability": "view",
      "type": "function"
    },
    {
      "inputs": [
        {
          "internalType": "uint256",
          "name": "index",
          "type": "uint256"
        }
      ],
      "name": "tokenByIndex",
      "outputs": [
        {
          "internalType": "uint256",
          "name": "",
          "type": "uint256"
        }
      ],
      "stateMutability": "view",
      "type": "function"
    },
    {
      "inputs": [
        {
          "internalType": "address",
          "name": "owner",
          "type": "address"
        },
        {
          "internalType": "uint256",
          "name": "index",
          "type": "uint256"
        }
      ],
      "name": "tokenOfOwnerByIndex",
      "outputs": [
        {
          "internalType": "uint256",
          "name": "",
          "type": "uint256"
        }
      ],
      "stateMutability": "view",
      "type": "function"
    },
    {
      "inputs": [
        {
          "internalType": "uint256",
          "name": "tokenId",
          "type": "uint256"
        }
      ],
      "name": "tokenURI",
      "outputs": [
        {
          "internalType": "string",
          "name": "",
          "type": "string"
        }
      ],
      "stateMutability": "view",
      "type": "function"
    },
    {
      "inputs": [],
      "name": "totalSupply",
      "outputs": [
        {
          "internalType": "uint256",
          "name": "",
          "type": "uint256"
        }
      ],
      "stateMutability": "view",
      "type": "function"
    },
    {
      "inputs": [
        {
          "internalType": "address",
          "name": "from",
          "type": "address"
        },
        {
          "internalType": "address",
          "name": "to",
          "type": "address"
        },
        {
          "internalType": "uint256",
          "name": "tokenId",
          "type": "uint256"
        }
      ],
      "name": "transferFrom",
      "outputs": [],
      "stateMutability": "nonpayable",
      "type": "function"
    },
    {
      "inputs": [
        {
          "internalType": "address",
          "name": "newOwner",
          "type": "address"
        }
      ],
      "name": "transferOwnership",
      "outputs": [],
      "stateMutability": "nonpayable",
      "type": "function"
    },
    {
      "inputs": [
        {
          "internalType": "uint256",
          "name": "_fee",
          "type": "uint256"
        }
      ],
      "name": "setServiceFeeForPaymentAddress",
      "outputs": [],
      "stateMutability": "nonpayable",
      "type": "function"
    },
    {
      "inputs": [
        {
          "internalType": "uint256",
          "name": "_fee",
          "type": "uint256"
        }
      ],
      "name": "setServiceFeeForContract",
      "outputs": [],
      "stateMutability": "nonpayable",
      "type": "function"
    },
    {
      "inputs": [
        {
          "internalType": "address",
          "name": "newAddress",
          "type": "address"
        }
      ],
      "name": "setPaymentAddress",
      "outputs": [],
      "stateMutability": "nonpayable",
      "type": "function"
    },
    {
      "inputs": [
        {
          "internalType": "bytes4",
          "name": "interfaceId",
          "type": "bytes4"
        }
      ],
      "name": "supportsInterface",
      "outputs": [
        {
          "internalType": "bool",
          "name": "",
          "type": "bool"
        }
      ],
      "stateMutability": "view",
      "type": "function"
    },
    {
      "inputs": [
        {
          "internalType": "uint256",
          "name": "requestId",
          "type": "uint256"
        },
        {
          "internalType": "address",
          "name": "user",
          "type": "address"
        },
        {
          "internalType": "address",
          "name": "dataProvider",
          "type": "address"
        },
        {
          "internalType": "string",
          "name": "uri",
          "type": "string"
        }
      ],
      "name": "mint",
      "outputs": [
        {
          "internalType": "uint256",
          "name": "tokenId",
          "type": "uint256"
        }
      ],
      "stateMutability": "nonpayable",
      "type": "function"
    },
    {
      "inputs": [],
      "name": "pause",
      "outputs": [],
      "stateMutability": "nonpayable",
      "type": "function"
    },
    {
      "inputs": [],
      "name": "unpause",
      "outputs": [],
      "stateMutability": "nonpayable",
      "type": "function"
    },
    {
      "inputs": [
        {
          "internalType": "address payable",
          "name": "payee",
          "type": "address"
        }
      ],
      "name": "withdrawBalance",
      "outputs": [],
      "stateMutability": "nonpayable",
      "type": "function"
    }
  ],
  "bytecode": "0x6080604052600060125560006013553480156200001b57600080fd5b50604051620062d9380380620062d9833981810160405281019062000041919062000305565b6040518060400160405280601481526020017f58445620506c6174666f726d203220546f6b656e0000000000000000000000008152506040518060400160405280600381526020017f58445600000000000000000000000000000000000000000000000000000000008152506000620000bf6200023660201b60201c565b9050806000806101000a81548173ffffffffffffffffffffffffffffffffffffffff021916908373ffffffffffffffffffffffffffffffffffffffff1602179055508073ffffffffffffffffffffffffffffffffffffffff16600073ffffffffffffffffffffffffffffffffffffffff167f8be0079c531659141344cd1fd0a4f28419497f9722a3daafe3b4186f6b6457e060405160405180910390a3508160059080519060200190620001759291906200023e565b5080600690805190602001906200018e9291906200023e565b5050506000600b60006101000a81548160ff02191690831515021790555080601460006101000a81548173ffffffffffffffffffffffffffffffffffffffff021916908373ffffffffffffffffffffffffffffffffffffffff16021790555081601160006101000a81548173ffffffffffffffffffffffffffffffffffffffff021916908373ffffffffffffffffffffffffffffffffffffffff1602179055505050620003f9565b600033905090565b8280546200024c906200037a565b90600052602060002090601f016020900481019282620002705760008555620002bc565b82601f106200028b57805160ff1916838001178555620002bc565b82800160010185558215620002bc579182015b82811115620002bb5782518255916020019190600101906200029e565b5b509050620002cb9190620002cf565b5090565b5b80821115620002ea576000816000905550600101620002d0565b5090565b600081519050620002ff81620003df565b92915050565b600080604083850312156200031957600080fd5b60006200032985828601620002ee565b92505060206200033c85828601620002ee565b9150509250929050565b600062000353826200035a565b9050919050565b600073ffffffffffffffffffffffffffffffffffffffff82169050919050565b600060028204905060018216806200039357607f821691505b60208210811415620003aa57620003a9620003b0565b5b50919050565b7f4e487b7100000000000000000000000000000000000000000000000000000000600052602260045260246000fd5b620003ea8162000346565b8114620003f657600080fd5b50565b615ed080620004096000396000f3fe608060405234801561001057600080fd5b506004361061023d5760003560e01c806366563b4f1161013b578063a22cb465116100b8578063e53ae1021161007c578063e53ae102146106f1578063e985e9c51461070f578063e9cbd8221461073f578063f2fde38b1461075d578063f83d360d146107795761023d565b8063a22cb4651461064f578063b86be2ca1461066b578063b88d4fde14610687578063c014b9da146106a3578063c87b56dd146106c15761023d565b8063761901bb116100ff578063761901bb146105a95780638456cb59146105d95780638da5cb5b146105e357806395d89b41146106015780639acd083e1461061f5761023d565b806366563b4f146104ec5780636efaa6991461051c57806370a0823114610553578063715018a614610583578063756af45f1461058d5761023d565b80632f745c59116101c95780634f6ccce71161018d5780634f6ccce7146104345780635c975abb146104645780635e1e100414610482578063633423be1461049e5780636352211e146104bc5761023d565b80632f745c59146103925780633f4ba83a146103c257806342842e0e146103cc57806342966c68146103e8578063435da82a146104045761023d565b80631626ba7e116102105780631626ba7e146102dc57806318160ddd1461030c57806323b872dd1461032a5780632aa222c8146103465780632c078e8d146103765761023d565b806301ffc9a71461024257806306fdde0314610272578063081812fc14610290578063095ea7b3146102c0575b600080fd5b61025c600480360381019061025791906143b4565b6107a9565b6040516102699190614cf6565b60405180910390f35b61027a6107bb565b6040516102879190614d8c565b60405180910390f35b6102aa60048036038101906102a59190614558565b61084d565b6040516102b79190614b95565b60405180910390f35b6102da60048036038101906102d591906142fb565b6108d2565b005b6102f660048036038101906102f19190614360565b6109ea565b6040516103039190614d56565b60405180910390f35b610314610a4f565b604051610321919061519e565b60405180910390f35b610344600480360381019061033f91906141f5565b610a5c565b005b610360600480360381019061035b9190614167565b610abc565b60405161036d919061519e565b60405180910390f35b610390600480360381019061038b9190614558565b610ad4565b005b6103ac60048036038101906103a791906142fb565b610b5a565b6040516103b9919061519e565b60405180910390f35b6103ca610bff565b005b6103e660048036038101906103e191906141f5565b610c85565b005b61040260048036038101906103fd9190614558565b610ca5565b005b61041e60048036038101906104199190614558565b610d01565b60405161042b9190614d8c565b60405180910390f35b61044e60048036038101906104499190614558565b610da1565b60405161045b919061519e565b60405180910390f35b61046c610e38565b6040516104799190614cf6565b60405180910390f35b61049c60048036038101906104979190614167565b610e4f565b005b6104a6610f0f565b6040516104b39190614b95565b60405180910390f35b6104d660048036038101906104d19190614558565b610f35565b6040516104e39190614b95565b60405180910390f35b61050660048036038101906105019190614406565b610fe7565b604051610513919061519e565b60405180910390f35b610536600480360381019061053191906142fb565b61127b565b60405161054a989796959493929190614c5c565b60405180910390f35b61056d60048036038101906105689190614167565b611530565b60405161057a919061519e565b60405180910390f35b61058b6115e8565b005b6105a760048036038101906105a29190614190565b611722565b005b6105c360048036038101906105be9190614167565b61198d565b6040516105d0919061519e565b60405180910390f35b6105e16119a5565b005b6105eb611a2b565b6040516105f89190614b95565b60405180910390f35b610609611a54565b6040516106169190614d8c565b60405180910390f35b610639600480360381019061063491906145aa565b611ae6565b604051610646919061519e565b60405180910390f35b610669600480360381019061066491906142bf565b611d33565b005b61068560048036038101906106809190614558565b611eb4565b005b6106a1600480360381019061069c9190614244565b611f3a565b005b6106ab611f9c565b6040516106b8919061519e565b60405180910390f35b6106db60048036038101906106d69190614558565b611fa2565b6040516106e89190614d8c565b60405180910390f35b6106f9612049565b604051610706919061519e565b60405180910390f35b610729600480360381019061072491906141b9565b61204f565b6040516107369190614cf6565b60405180910390f35b6107476120e3565b6040516107549190614d71565b60405180910390f35b61077760048036038101906107729190614167565b612109565b005b610793600480360381019061078e9190614481565b6122b2565b6040516107a0919061519e565b60405180910390f35b60006107b4826125c7565b9050919050565b6060600580546107ca906154a0565b80601f01602080910402602001604051908101604052809291908181526020018280546107f6906154a0565b80156108435780601f1061081857610100808354040283529160200191610843565b820191906000526020600020905b81548152906001019060200180831161082657829003601f168201915b5050505050905090565b600061085882612641565b610897576040517f08c379a000000000000000000000000000000000000000000000000000000000815260040161088e9061507e565b60405180910390fd5b6009600083815260200190815260200160002060009054906101000a900473ffffffffffffffffffffffffffffffffffffffff169050919050565b60006108dd82610f35565b90508073ffffffffffffffffffffffffffffffffffffffff168373ffffffffffffffffffffffffffffffffffffffff16141561094e576040517f08c379a0000000000000000000000000000000000000000000000000000000008152600401610945906150fe565b60405180910390fd5b8073ffffffffffffffffffffffffffffffffffffffff1661096d6126ad565b73ffffffffffffffffffffffffffffffffffffffff16148061099c575061099b816109966126ad565b61204f565b5b6109db576040517f08c379a00000000000000000000000000000000000000000000000000000000081526004016109d290614f9e565b60405180910390fd5b6109e583836126b5565b505050565b6000806109f7848461276e565b9050610a01611a2b565b73ffffffffffffffffffffffffffffffffffffffff168173ffffffffffffffffffffffffffffffffffffffff1614610a3d57600060e01b610a46565b631626ba7e60e01b5b91505092915050565b6000600e80549050905090565b610a6d610a676126ad565b82612838565b610aac576040517f08c379a0000000000000000000000000000000000000000000000000000000008152600401610aa39061511e565b60405180910390fd5b610ab7838383612916565b505050565b60026020528060005260406000206000915090505481565b610adc6126ad565b73ffffffffffffffffffffffffffffffffffffffff16610afa611a2b565b73ffffffffffffffffffffffffffffffffffffffff1614610b50576040517f08c379a0000000000000000000000000000000000000000000000000000000008152600401610b479061509e565b60405180910390fd5b8060138190555050565b6000610b6583611530565b8210610ba6576040517f08c379a0000000000000000000000000000000000000000000000000000000008152600401610b9d90614e5e565b60405180910390fd5b600c60008473ffffffffffffffffffffffffffffffffffffffff1673ffffffffffffffffffffffffffffffffffffffff168152602001908152602001600020600083815260200190815260200160002054905092915050565b610c076126ad565b73ffffffffffffffffffffffffffffffffffffffff16610c25611a2b565b73ffffffffffffffffffffffffffffffffffffffff1614610c7b576040517f08c379a0000000000000000000000000000000000000000000000000000000008152600401610c729061509e565b60405180910390fd5b610c83612b72565b565b610ca083838360405180602001604052806000815250611f3a565b505050565b610cb6610cb06126ad565b82612838565b610cf5576040517f08c379a0000000000000000000000000000000000000000000000000000000008152600401610cec9061517e565b60405180910390fd5b610cfe81612c14565b50565b60156020528060005260406000206000915090508054610d20906154a0565b80601f0160208091040260200160405190810160405280929190818152602001828054610d4c906154a0565b8015610d995780601f10610d6e57610100808354040283529160200191610d99565b820191906000526020600020905b815481529060010190602001808311610d7c57829003601f168201915b505050505081565b6000610dab610a4f565b8210610dec576040517f08c379a0000000000000000000000000000000000000000000000000000000008152600401610de39061513e565b60405180910390fd5b600e8281548110610e26577f4e487b7100000000000000000000000000000000000000000000000000000000600052603260045260246000fd5b90600052602060002001549050919050565b6000600b60009054906101000a900460ff16905090565b610e576126ad565b73ffffffffffffffffffffffffffffffffffffffff16610e75611a2b565b73ffffffffffffffffffffffffffffffffffffffff1614610ecb576040517f08c379a0000000000000000000000000000000000000000000000000000000008152600401610ec29061509e565b60405180910390fd5b80601460006101000a81548173ffffffffffffffffffffffffffffffffffffffff021916908373ffffffffffffffffffffffffffffffffffffffff16021790555050565b601460009054906101000a900473ffffffffffffffffffffffffffffffffffffffff1681565b6000806007600084815260200190815260200160002060009054906101000a900473ffffffffffffffffffffffffffffffffffffffff169050600073ffffffffffffffffffffffffffffffffffffffff168173ffffffffffffffffffffffffffffffffffffffff161415610fde576040517f08c379a0000000000000000000000000000000000000000000000000000000008152600401610fd590614fde565b60405180910390fd5b80915050919050565b6000600160003373ffffffffffffffffffffffffffffffffffffffff1673ffffffffffffffffffffffffffffffffffffffff168152602001908152602001600020600081548092919061103990615503565b91905055506040518060e001604052808681526020018573ffffffffffffffffffffffffffffffffffffffff16815260200184151581526020018381526020014281526020013073ffffffffffffffffffffffffffffffffffffffff16815260200160011515815250600460003373ffffffffffffffffffffffffffffffffffffffff1673ffffffffffffffffffffffffffffffffffffffff16815260200190815260200160002060008201518160000190805190602001906110fd929190613f37565b5060208201518160010160006101000a81548173ffffffffffffffffffffffffffffffffffffffff021916908373ffffffffffffffffffffffffffffffffffffffff16021790555060408201518160010160146101000a81548160ff021916908315150217905550606082015181600201556080820151816003015560a08201518160040160006101000a81548173ffffffffffffffffffffffffffffffffffffffff021916908373ffffffffffffffffffffffffffffffffffffffff16021790555060c08201518160040160146101000a81548160ff0219169083151502179055509050503373ffffffffffffffffffffffffffffffffffffffff167fdd49a7e572b5c7638971bc6a10724835256bbb03ca4187ce5fa77a2bf3716a76866040516112299190614d8c565b60405180910390a2600160003373ffffffffffffffffffffffffffffffffffffffff1673ffffffffffffffffffffffffffffffffffffffff168152602001908152602001600020549050949350505050565b6003602052816000526040600020602052806000526040600020600091509150508060000160009054906101000a900473ffffffffffffffffffffffffffffffffffffffff16908060010180546112d1906154a0565b80601f01602080910402602001604051908101604052809291908181526020018280546112fd906154a0565b801561134a5780601f1061131f5761010080835404028352916020019161134a565b820191906000526020600020905b81548152906001019060200180831161132d57829003601f168201915b5050505050908060020160009054906101000a900473ffffffffffffffffffffffffffffffffffffffff1690806003018054611385906154a0565b80601f01602080910402602001604051908101604052809291908181526020018280546113b1906154a0565b80156113fe5780601f106113d3576101008083540402835291602001916113fe565b820191906000526020600020905b8154815290600101906020018083116113e157829003601f168201915b505050505090806004018054611413906154a0565b80601f016020809104026020016040519081016040528092919081815260200182805461143f906154a0565b801561148c5780601f106114615761010080835404028352916020019161148c565b820191906000526020600020905b81548152906001019060200180831161146f57829003601f168201915b5050505050908060050154908060060154908060070180546114ad906154a0565b80601f01602080910402602001604051908101604052809291908181526020018280546114d9906154a0565b80156115265780601f106114fb57610100808354040283529160200191611526565b820191906000526020600020905b81548152906001019060200180831161150957829003601f168201915b5050505050905088565b60008073ffffffffffffffffffffffffffffffffffffffff168273ffffffffffffffffffffffffffffffffffffffff1614156115a1576040517f08c379a000000000000000000000000000000000000000000000000000000000815260040161159890614fbe565b60405180910390fd5b600860008373ffffffffffffffffffffffffffffffffffffffff1673ffffffffffffffffffffffffffffffffffffffff168152602001908152602001600020549050919050565b6115f06126ad565b73ffffffffffffffffffffffffffffffffffffffff1661160e611a2b565b73ffffffffffffffffffffffffffffffffffffffff1614611664576040517f08c379a000000000000000000000000000000000000000000000000000000000815260040161165b9061509e565b60405180910390fd5b600073ffffffffffffffffffffffffffffffffffffffff1660008054906101000a900473ffffffffffffffffffffffffffffffffffffffff1673ffffffffffffffffffffffffffffffffffffffff167f8be0079c531659141344cd1fd0a4f28419497f9722a3daafe3b4186f6b6457e060405160405180910390a360008060006101000a81548173ffffffffffffffffffffffffffffffffffffffff021916908373ffffffffffffffffffffffffffffffffffffffff160217905550565b61172a6126ad565b73ffffffffffffffffffffffffffffffffffffffff16611748611a2b565b73ffffffffffffffffffffffffffffffffffffffff161461179e576040517f08c379a00000000000000000000000000000000000000000000000000000000081526004016117959061509e565b60405180910390fd5b6000601160009054906101000a900473ffffffffffffffffffffffffffffffffffffffff1673ffffffffffffffffffffffffffffffffffffffff166370a08231306040518263ffffffff1660e01b81526004016117fb9190614b95565b60206040518083038186803b15801561181357600080fd5b505afa158015611827573d6000803e3d6000fd5b505050506040513d601f19601f8201168201806040525081019061184b9190614581565b9050601160009054906101000a900473ffffffffffffffffffffffffffffffffffffffff1673ffffffffffffffffffffffffffffffffffffffff1663a9059cbb83836040518363ffffffff1660e01b81526004016118aa929190614bb0565b602060405180830381600087803b1580156118c457600080fd5b505af11580156118d8573d6000803e3d6000fd5b505050506040513d601f19601f820116820180604052508101906118fc9190614337565b61193b576040517f08c379a00000000000000000000000000000000000000000000000000000000081526004016119329061515e565b60405180910390fd5b8173ffffffffffffffffffffffffffffffffffffffff167f7084f5476618d8e60b11ef0d7d3f06914655adb8793e28ff7f018d4c76d505d582604051611981919061519e565b60405180910390a25050565b60016020528060005260406000206000915090505481565b6119ad6126ad565b73ffffffffffffffffffffffffffffffffffffffff166119cb611a2b565b73ffffffffffffffffffffffffffffffffffffffff1614611a21576040517f08c379a0000000000000000000000000000000000000000000000000000000008152600401611a189061509e565b60405180910390fd5b611a29612d25565b565b60008060009054906101000a900473ffffffffffffffffffffffffffffffffffffffff16905090565b606060068054611a63906154a0565b80601f0160208091040260200160405190810160405280929190818152602001828054611a8f906154a0565b8015611adc5780601f10611ab157610100808354040283529160200191611adc565b820191906000526020600020905b815481529060010190602001808311611abf57829003601f168201915b5050505050905090565b6000806002811115611b21577f4e487b7100000000000000000000000000000000000000000000000000000000600052602160045260246000fd5b600360008573ffffffffffffffffffffffffffffffffffffffff1673ffffffffffffffffffffffffffffffffffffffff16815260200190815260200160002060008781526020019081526020016000206005015414611bb5576040517f08c379a0000000000000000000000000000000000000000000000000000000008152600401611bac9061505e565b60405180910390fd5b611bbf6010612dc8565b6000611bcb6010612dde565b9050611bd78582612dec565b82601560008381526020019081526020016000209080519060200190611bfe929190613f37565b5060016002811115611c39577f4e487b7100000000000000000000000000000000000000000000000000000000600052602160045260246000fd5b600360008673ffffffffffffffffffffffffffffffffffffffff1673ffffffffffffffffffffffffffffffffffffffff168152602001908152602001600020600088815260200190815260200160002060050181905550600160008573ffffffffffffffffffffffffffffffffffffffff1673ffffffffffffffffffffffffffffffffffffffff1681526020019081526020016000206000815480929190611ce090615503565b91905055600160008673ffffffffffffffffffffffffffffffffffffffff1673ffffffffffffffffffffffffffffffffffffffff1681526020019081526020016000208190555080915050949350505050565b611d3b6126ad565b73ffffffffffffffffffffffffffffffffffffffff168273ffffffffffffffffffffffffffffffffffffffff161415611da9576040517f08c379a0000000000000000000000000000000000000000000000000000000008152600401611da090614f1e565b60405180910390fd5b80600a6000611db66126ad565b73ffffffffffffffffffffffffffffffffffffffff1673ffffffffffffffffffffffffffffffffffffffff16815260200190815260200160002060008473ffffffffffffffffffffffffffffffffffffffff1673ffffffffffffffffffffffffffffffffffffffff16815260200190815260200160002060006101000a81548160ff0219169083151502179055508173ffffffffffffffffffffffffffffffffffffffff16611e636126ad565b73ffffffffffffffffffffffffffffffffffffffff167f17307eab39ab6107e8899845ad3d59bd9653f200f220920489ca2b5937696c3183604051611ea89190614cf6565b60405180910390a35050565b611ebc6126ad565b73ffffffffffffffffffffffffffffffffffffffff16611eda611a2b565b73ffffffffffffffffffffffffffffffffffffffff1614611f30576040517f08c379a0000000000000000000000000000000000000000000000000000000008152600401611f279061509e565b60405180910390fd5b8060128190555050565b611f4b611f456126ad565b83612838565b611f8a576040517f08c379a0000000000000000000000000000000000000000000000000000000008152600401611f819061511e565b60405180910390fd5b611f9684848484612e0a565b50505050565b60125481565b6060611fad82612641565b611fec576040517f08c379a0000000000000000000000000000000000000000000000000000000008152600401611fe3906150de565b60405180910390fd5b6000611ff6612e66565b905060008151116120165760405180602001604052806000815250612041565b8061202084612e7d565b604051602001612031929190614b71565b6040516020818303038152906040525b915050919050565b60135481565b6000600a60008473ffffffffffffffffffffffffffffffffffffffff1673ffffffffffffffffffffffffffffffffffffffff16815260200190815260200160002060008373ffffffffffffffffffffffffffffffffffffffff1673ffffffffffffffffffffffffffffffffffffffff16815260200190815260200160002060009054906101000a900460ff16905092915050565b601160009054906101000a900473ffffffffffffffffffffffffffffffffffffffff1681565b6121116126ad565b73ffffffffffffffffffffffffffffffffffffffff1661212f611a2b565b73ffffffffffffffffffffffffffffffffffffffff1614612185576040517f08c379a000000000000000000000000000000000000000000000000000000000815260040161217c9061509e565b60405180910390fd5b600073ffffffffffffffffffffffffffffffffffffffff168173ffffffffffffffffffffffffffffffffffffffff1614156121f5576040517f08c379a00000000000000000000000000000000000000000000000000000000081526004016121ec90614e9e565b60405180910390fd5b8073ffffffffffffffffffffffffffffffffffffffff1660008054906101000a900473ffffffffffffffffffffffffffffffffffffffff1673ffffffffffffffffffffffffffffffffffffffff167f8be0079c531659141344cd1fd0a4f28419497f9722a3daafe3b4186f6b6457e060405160405180910390a3806000806101000a81548173ffffffffffffffffffffffffffffffffffffffff021916908373ffffffffffffffffffffffffffffffffffffffff16021790555050565b600080600260008773ffffffffffffffffffffffffffffffffffffffff1673ffffffffffffffffffffffffffffffffffffffff1681526020019081526020016000205490506040518061010001604052803373ffffffffffffffffffffffffffffffffffffffff1681526020018681526020018773ffffffffffffffffffffffffffffffffffffffff16815260200188815260200185815260200160006002811115612387577f4e487b7100000000000000000000000000000000000000000000000000000000600052602160045260246000fd5b815260200142815260200184815250600360008873ffffffffffffffffffffffffffffffffffffffff1673ffffffffffffffffffffffffffffffffffffffff168152602001908152602001600020600083815260200190815260200160002060008201518160000160006101000a81548173ffffffffffffffffffffffffffffffffffffffff021916908373ffffffffffffffffffffffffffffffffffffffff1602179055506020820151816001019080519060200190612449929190613f37565b5060408201518160020160006101000a81548173ffffffffffffffffffffffffffffffffffffffff021916908373ffffffffffffffffffffffffffffffffffffffff16021790555060608201518160030190805190602001906124ad929190613f37565b5060808201518160040190805190602001906124ca929190613f37565b5060a0820151816005015560c0820151816006015560e08201518160070190805190602001906124fb929190613f37565b50905050600260008773ffffffffffffffffffffffffffffffffffffffff1673ffffffffffffffffffffffffffffffffffffffff168152602001908152602001600020600081548092919061254f90615503565b9190505550846040516125629190614b5a565b60405180910390203373ffffffffffffffffffffffffffffffffffffffff167f0a007e579f0793671747216eab1061026d102ff0f66e876d2edaa6277ad53e6686846040516125b2929190614dae565b60405180910390a38091505095945050505050565b60007f780e9d63000000000000000000000000000000000000000000000000000000007bffffffffffffffffffffffffffffffffffffffffffffffffffffffff1916827bffffffffffffffffffffffffffffffffffffffffffffffffffffffff1916148061263a57506126398261302a565b5b9050919050565b60008073ffffffffffffffffffffffffffffffffffffffff166007600084815260200190815260200160002060009054906101000a900473ffffffffffffffffffffffffffffffffffffffff1673ffffffffffffffffffffffffffffffffffffffff1614159050919050565b600033905090565b816009600083815260200190815260200160002060006101000a81548173ffffffffffffffffffffffffffffffffffffffff021916908373ffffffffffffffffffffffffffffffffffffffff160217905550808273ffffffffffffffffffffffffffffffffffffffff1661272883610f35565b73ffffffffffffffffffffffffffffffffffffffff167f8c5be1e5ebec7d5bd14f71427d1e84f3dd0314c0f7b2291e5b200ac8c7c3b92560405160405180910390a45050565b60008060008060418551141561279b576020850151925060408501519150606085015160001a9050612821565b6040855114156127e5576040850151602086015193507f7fffffffffffffffffffffffffffffffffffffffffffffffffffffffffffffff81169250601b8160ff1c01915050612820565b6040517f08c379a000000000000000000000000000000000000000000000000000000000815260040161281790614e3e565b60405180910390fd5b5b61282d8682858561310c565b935050505092915050565b600061284382612641565b612882576040517f08c379a000000000000000000000000000000000000000000000000000000000815260040161287990614f5e565b60405180910390fd5b600061288d83610f35565b90508073ffffffffffffffffffffffffffffffffffffffff168473ffffffffffffffffffffffffffffffffffffffff1614806128fc57508373ffffffffffffffffffffffffffffffffffffffff166128e48461084d565b73ffffffffffffffffffffffffffffffffffffffff16145b8061290d575061290c818561204f565b5b91505092915050565b8273ffffffffffffffffffffffffffffffffffffffff1661293682610f35565b73ffffffffffffffffffffffffffffffffffffffff161461298c576040517f08c379a0000000000000000000000000000000000000000000000000000000008152600401612983906150be565b60405180910390fd5b600073ffffffffffffffffffffffffffffffffffffffff168273ffffffffffffffffffffffffffffffffffffffff1614156129fc576040517f08c379a00000000000000000000000000000000000000000000000000000000081526004016129f390614efe565b60405180910390fd5b612a07838383613297565b612a126000826126b5565b6001600860008573ffffffffffffffffffffffffffffffffffffffff1673ffffffffffffffffffffffffffffffffffffffff1681526020019081526020016000206000828254612a629190615333565b925050819055506001600860008473ffffffffffffffffffffffffffffffffffffffff1673ffffffffffffffffffffffffffffffffffffffff1681526020019081526020016000206000828254612ab991906152ac565b92505081905550816007600083815260200190815260200160002060006101000a81548173ffffffffffffffffffffffffffffffffffffffff021916908373ffffffffffffffffffffffffffffffffffffffff160217905550808273ffffffffffffffffffffffffffffffffffffffff168473ffffffffffffffffffffffffffffffffffffffff167fddf252ad1be2c89b69c2b068fc378daa952ba7f163c4a11628f55a4df523b3ef60405160405180910390a4505050565b612b7a610e38565b612bb9576040517f08c379a0000000000000000000000000000000000000000000000000000000008152600401612bb090614e1e565b60405180910390fd5b6000600b60006101000a81548160ff0219169083151502179055507f5db9ee0a495bf2e6ff9c91a7834c1ba4fdd244a5e8aa4e537bd38aeae4b073aa612bfd6126ad565b604051612c0a9190614b95565b60405180910390a1565b6000612c1f82610f35565b9050612c2d81600084613297565b612c386000836126b5565b6001600860008373ffffffffffffffffffffffffffffffffffffffff1673ffffffffffffffffffffffffffffffffffffffff1681526020019081526020016000206000828254612c889190615333565b925050819055506007600083815260200190815260200160002060006101000a81549073ffffffffffffffffffffffffffffffffffffffff021916905581600073ffffffffffffffffffffffffffffffffffffffff168273ffffffffffffffffffffffffffffffffffffffff167fddf252ad1be2c89b69c2b068fc378daa952ba7f163c4a11628f55a4df523b3ef60405160405180910390a45050565b612d2d610e38565b15612d6d576040517f08c379a0000000000000000000000000000000000000000000000000000000008152600401612d6490614f7e565b60405180910390fd5b6001600b60006101000a81548160ff0219169083151502179055507f62e78cea01bee320cd4e420270b5ea74000d11b0c9f74754ebdbfc544b05a258612db16126ad565b604051612dbe9190614b95565b60405180910390a1565b6001816000016000828254019250508190555050565b600081600001549050919050565b612e068282604051806020016040528060008152506132e7565b5050565b612e15848484612916565b612e2184848484613342565b612e60576040517f08c379a0000000000000000000000000000000000000000000000000000000008152600401612e5790614e7e565b60405180910390fd5b50505050565b606060405180602001604052806000815250905090565b60606000821415612ec5576040518060400160405280600181526020017f30000000000000000000000000000000000000000000000000000000000000008152509050613025565b600082905060005b60008214612ef7578080612ee090615503565b915050600a82612ef09190615302565b9150612ecd565b60008167ffffffffffffffff811115612f39577f4e487b7100000000000000000000000000000000000000000000000000000000600052604160045260246000fd5b6040519080825280601f01601f191660200182016040528015612f6b5781602001600182028036833780820191505090505b5090505b6000851461301e57600182612f849190615333565b9150600a85612f93919061554c565b6030612f9f91906152ac565b60f81b818381518110612fdb577f4e487b7100000000000000000000000000000000000000000000000000000000600052603260045260246000fd5b60200101907effffffffffffffffffffffffffffffffffffffffffffffffffffffffffffff1916908160001a905350600a856130179190615302565b9450612f6f565b8093505050505b919050565b60007f80ac58cd000000000000000000000000000000000000000000000000000000007bffffffffffffffffffffffffffffffffffffffffffffffffffffffff1916827bffffffffffffffffffffffffffffffffffffffffffffffffffffffff191614806130f557507f5b5e139f000000000000000000000000000000000000000000000000000000007bffffffffffffffffffffffffffffffffffffffffffffffffffffffff1916827bffffffffffffffffffffffffffffffffffffffffffffffffffffffff1916145b806131055750613104826134d9565b5b9050919050565b60007f7fffffffffffffffffffffffffffffff5d576e7357a4501ddfe92f46681b20a08260001c1115613174576040517f08c379a000000000000000000000000000000000000000000000000000000000815260040161316b90614f3e565b60405180910390fd5b601b8460ff1614806131895750601c8460ff16145b6131c8576040517f08c379a00000000000000000000000000000000000000000000000000000000081526004016131bf9061501e565b60405180910390fd5b6000600186868686604051600081526020016040526040516131ed9493929190614d11565b6020604051602081039080840390855afa15801561320f573d6000803e3d6000fd5b505050602060405103519050600073ffffffffffffffffffffffffffffffffffffffff168173ffffffffffffffffffffffffffffffffffffffff16141561328b576040517f08c379a000000000000000000000000000000000000000000000000000000000815260040161328290614dde565b60405180910390fd5b80915050949350505050565b600073ffffffffffffffffffffffffffffffffffffffff168273ffffffffffffffffffffffffffffffffffffffff1614156132d7576132d68382613543565b5b6132e283838361386d565b505050565b6132f18383613981565b6132fe6000848484613342565b61333d576040517f08c379a000000000000000000000000000000000000000000000000000000000815260040161333490614e7e565b60405180910390fd5b505050565b60006133638473ffffffffffffffffffffffffffffffffffffffff16613b4f565b156134cc578373ffffffffffffffffffffffffffffffffffffffff1663150b7a0261338c6126ad565b8786866040518563ffffffff1660e01b81526004016133ae9493929190614c10565b602060405180830381600087803b1580156133c857600080fd5b505af19250505080156133f957506040513d601f19601f820116820180604052508101906133f691906143dd565b60015b61347c573d8060008114613429576040519150601f19603f3d011682016040523d82523d6000602084013e61342e565b606091505b50600081511415613474576040517f08c379a000000000000000000000000000000000000000000000000000000000815260040161346b90614e7e565b60405180910390fd5b805181602001fd5b63150b7a0260e01b7bffffffffffffffffffffffffffffffffffffffffffffffffffffffff1916817bffffffffffffffffffffffffffffffffffffffffffffffffffffffff1916149150506134d1565b600190505b949350505050565b60007f01ffc9a7000000000000000000000000000000000000000000000000000000007bffffffffffffffffffffffffffffffffffffffffffffffffffffffff1916827bffffffffffffffffffffffffffffffffffffffffffffffffffffffff1916149050919050565b600073ffffffffffffffffffffffffffffffffffffffff16601460009054906101000a900473ffffffffffffffffffffffffffffffffffffffff1673ffffffffffffffffffffffffffffffffffffffff1614156135d5576040517f08c379a00000000000000000000000000000000000000000000000000000000081526004016135cc90614ebe565b60405180910390fd5b601160009054906101000a900473ffffffffffffffffffffffffffffffffffffffff1673ffffffffffffffffffffffffffffffffffffffff166323b872dd83306013546040518463ffffffff1660e01b815260040161363693929190614bd9565b602060405180830381600087803b15801561365057600080fd5b505af1158015613664573d6000803e3d6000fd5b505050506040513d601f19601f820116820180604052508101906136889190614337565b6136c7576040517f08c379a00000000000000000000000000000000000000000000000000000000081526004016136be90614ffe565b60405180910390fd5b601160009054906101000a900473ffffffffffffffffffffffffffffffffffffffff1673ffffffffffffffffffffffffffffffffffffffff166323b872dd83601460009054906101000a900473ffffffffffffffffffffffffffffffffffffffff166012546040518463ffffffff1660e01b815260040161374a93929190614bd9565b602060405180830381600087803b15801561376457600080fd5b505af1158015613778573d6000803e3d6000fd5b505050506040513d601f19601f8201168201806040525081019061379c9190614337565b6137db576040517f08c379a00000000000000000000000000000000000000000000000000000000081526004016137d290614ffe565b60405180910390fd5b601460009054906101000a900473ffffffffffffffffffffffffffffffffffffffff1673ffffffffffffffffffffffffffffffffffffffff168273ffffffffffffffffffffffffffffffffffffffff16827fbe88f4b50295cd4ba6297b8faffa2e54364bd9520682ecdfa7ac6f44b931e9946013546012546040516138619291906151b9565b60405180910390a45050565b613878838383613b62565b600073ffffffffffffffffffffffffffffffffffffffff168373ffffffffffffffffffffffffffffffffffffffff1614156138bb576138b681613bba565b6138fa565b8173ffffffffffffffffffffffffffffffffffffffff168373ffffffffffffffffffffffffffffffffffffffff16146138f9576138f88382613c03565b5b5b600073ffffffffffffffffffffffffffffffffffffffff168273ffffffffffffffffffffffffffffffffffffffff16141561393d5761393881613d70565b61397c565b8273ffffffffffffffffffffffffffffffffffffffff168273ffffffffffffffffffffffffffffffffffffffff161461397b5761397a8282613eb3565b5b5b505050565b600073ffffffffffffffffffffffffffffffffffffffff168273ffffffffffffffffffffffffffffffffffffffff1614156139f1576040517f08c379a00000000000000000000000000000000000000000000000000000000081526004016139e89061503e565b60405180910390fd5b6139fa81612641565b15613a3a576040517f08c379a0000000000000000000000000000000000000000000000000000000008152600401613a3190614ede565b60405180910390fd5b613a4660008383613297565b6001600860008473ffffffffffffffffffffffffffffffffffffffff1673ffffffffffffffffffffffffffffffffffffffff1681526020019081526020016000206000828254613a9691906152ac565b92505081905550816007600083815260200190815260200160002060006101000a81548173ffffffffffffffffffffffffffffffffffffffff021916908373ffffffffffffffffffffffffffffffffffffffff160217905550808273ffffffffffffffffffffffffffffffffffffffff16600073ffffffffffffffffffffffffffffffffffffffff167fddf252ad1be2c89b69c2b068fc378daa952ba7f163c4a11628f55a4df523b3ef60405160405180910390a45050565b600080823b905060008111915050919050565b613b6d838383613f32565b613b75610e38565b15613bb5576040517f08c379a0000000000000000000000000000000000000000000000000000000008152600401613bac90614dfe565b60405180910390fd5b505050565b600e80549050600f600083815260200190815260200160002081905550600e81908060018154018082558091505060019003906000526020600020016000909190919091505550565b60006001613c1084611530565b613c1a9190615333565b90506000600d6000848152602001908152602001600020549050818114613cff576000600c60008673ffffffffffffffffffffffffffffffffffffffff1673ffffffffffffffffffffffffffffffffffffffff168152602001908152602001600020600084815260200190815260200160002054905080600c60008773ffffffffffffffffffffffffffffffffffffffff1673ffffffffffffffffffffffffffffffffffffffff16815260200190815260200160002060008481526020019081526020016000208190555081600d600083815260200190815260200160002081905550505b600d600084815260200190815260200160002060009055600c60008573ffffffffffffffffffffffffffffffffffffffff1673ffffffffffffffffffffffffffffffffffffffff16815260200190815260200160002060008381526020019081526020016000206000905550505050565b60006001600e80549050613d849190615333565b90506000600f60008481526020019081526020016000205490506000600e8381548110613dda577f4e487b7100000000000000000000000000000000000000000000000000000000600052603260045260246000fd5b9060005260206000200154905080600e8381548110613e22577f4e487b7100000000000000000000000000000000000000000000000000000000600052603260045260246000fd5b906000526020600020018190555081600f600083815260200190815260200160002081905550600f600085815260200190815260200160002060009055600e805480613e97577f4e487b7100000000000000000000000000000000000000000000000000000000600052603160045260246000fd5b6001900381819060005260206000200160009055905550505050565b6000613ebe83611530565b905081600c60008573ffffffffffffffffffffffffffffffffffffffff1673ffffffffffffffffffffffffffffffffffffffff16815260200190815260200160002060008381526020019081526020016000208190555080600d600084815260200190815260200160002081905550505050565b505050565b828054613f43906154a0565b90600052602060002090601f016020900481019282613f655760008555613fac565b82601f10613f7e57805160ff1916838001178555613fac565b82800160010185558215613fac579182015b82811115613fab578251825591602001919060010190613f90565b5b509050613fb99190613fbd565b5090565b5b80821115613fd6576000816000905550600101613fbe565b5090565b6000613fed613fe884615207565b6151e2565b90508281526020810184848401111561400557600080fd5b61401084828561545e565b509392505050565b600061402b61402684615238565b6151e2565b90508281526020810184848401111561404357600080fd5b61404e84828561545e565b509392505050565b60008135905061406581615e10565b92915050565b60008135905061407a81615e27565b92915050565b60008135905061408f81615e3e565b92915050565b6000815190506140a481615e3e565b92915050565b6000813590506140b981615e55565b92915050565b6000813590506140ce81615e6c565b92915050565b6000815190506140e381615e6c565b92915050565b600082601f8301126140fa57600080fd5b813561410a848260208601613fda565b91505092915050565b600082601f83011261412457600080fd5b8135614134848260208601614018565b91505092915050565b60008135905061414c81615e83565b92915050565b60008151905061416181615e83565b92915050565b60006020828403121561417957600080fd5b600061418784828501614056565b91505092915050565b6000602082840312156141a257600080fd5b60006141b08482850161406b565b91505092915050565b600080604083850312156141cc57600080fd5b60006141da85828601614056565b92505060206141eb85828601614056565b9150509250929050565b60008060006060848603121561420a57600080fd5b600061421886828701614056565b935050602061422986828701614056565b925050604061423a8682870161413d565b9150509250925092565b6000806000806080858703121561425a57600080fd5b600061426887828801614056565b945050602061427987828801614056565b935050604061428a8782880161413d565b925050606085013567ffffffffffffffff8111156142a757600080fd5b6142b3878288016140e9565b91505092959194509250565b600080604083850312156142d257600080fd5b60006142e085828601614056565b92505060206142f185828601614080565b9150509250929050565b6000806040838503121561430e57600080fd5b600061431c85828601614056565b925050602061432d8582860161413d565b9150509250929050565b60006020828403121561434957600080fd5b600061435784828501614095565b91505092915050565b6000806040838503121561437357600080fd5b6000614381858286016140aa565b925050602083013567ffffffffffffffff81111561439e57600080fd5b6143aa858286016140e9565b9150509250929050565b6000602082840312156143c657600080fd5b60006143d4848285016140bf565b91505092915050565b6000602082840312156143ef57600080fd5b60006143fd848285016140d4565b91505092915050565b6000806000806080858703121561441c57600080fd5b600085013567ffffffffffffffff81111561443657600080fd5b61444287828801614113565b945050602061445387828801614056565b935050604061446487828801614080565b92505060606144758782880161413d565b91505092959194509250565b600080600080600060a0868803121561449957600080fd5b600086013567ffffffffffffffff8111156144b357600080fd5b6144bf88828901614113565b95505060206144d088828901614056565b945050604086013567ffffffffffffffff8111156144ed57600080fd5b6144f988828901614113565b935050606086013567ffffffffffffffff81111561451657600080fd5b61452288828901614113565b925050608086013567ffffffffffffffff81111561453f57600080fd5b61454b88828901614113565b9150509295509295909350565b60006020828403121561456a57600080fd5b60006145788482850161413d565b91505092915050565b60006020828403121561459357600080fd5b60006145a184828501614152565b91505092915050565b600080600080608085870312156145c057600080fd5b60006145ce8782880161413d565b94505060206145df87828801614056565b93505060406145f087828801614056565b925050606085013567ffffffffffffffff81111561460d57600080fd5b61461987828801614113565b91505092959194509250565b61462e81615404565b82525050565b61463d81615367565b82525050565b61464c8161538b565b82525050565b61465b81615397565b82525050565b61466a816153a1565b82525050565b600061467b82615269565b614685818561527f565b935061469581856020860161546d565b61469e81615639565b840191505092915050565b6146b281615416565b82525050565b60006146c382615274565b6146cd8185615290565b93506146dd81856020860161546d565b6146e681615639565b840191505092915050565b60006146fc82615274565b61470681856152a1565b935061471681856020860161546d565b80840191505092915050565b600061472f601883615290565b915061473a8261564a565b602082019050919050565b6000614752602b83615290565b915061475d82615673565b604082019050919050565b6000614775601483615290565b9150614780826156c2565b602082019050919050565b6000614798601f83615290565b91506147a3826156eb565b602082019050919050565b60006147bb602b83615290565b91506147c682615714565b604082019050919050565b60006147de603283615290565b91506147e982615763565b604082019050919050565b6000614801602683615290565b915061480c826157b2565b604082019050919050565b6000614824602083615290565b915061482f82615801565b602082019050919050565b6000614847601c83615290565b91506148528261582a565b602082019050919050565b600061486a602483615290565b915061487582615853565b604082019050919050565b600061488d601983615290565b9150614898826158a2565b602082019050919050565b60006148b0602283615290565b91506148bb826158cb565b604082019050919050565b60006148d3602c83615290565b91506148de8261591a565b604082019050919050565b60006148f6601083615290565b915061490182615969565b602082019050919050565b6000614919603883615290565b915061492482615992565b604082019050919050565b600061493c602a83615290565b9150614947826159e1565b604082019050919050565b600061495f602983615290565b915061496a82615a30565b604082019050919050565b6000614982602283615290565b915061498d82615a7f565b604082019050919050565b60006149a5602283615290565b91506149b082615ace565b604082019050919050565b60006149c8602083615290565b91506149d382615b1d565b602082019050919050565b60006149eb602183615290565b91506149f682615b46565b604082019050919050565b6000614a0e602c83615290565b9150614a1982615b95565b604082019050919050565b6000614a31602083615290565b9150614a3c82615be4565b602082019050919050565b6000614a54602983615290565b9150614a5f82615c0d565b604082019050919050565b6000614a77602f83615290565b9150614a8282615c5c565b604082019050919050565b6000614a9a602183615290565b9150614aa582615cab565b604082019050919050565b6000614abd603183615290565b9150614ac882615cfa565b604082019050919050565b6000614ae0602c83615290565b9150614aeb82615d49565b604082019050919050565b6000614b03601483615290565b9150614b0e82615d98565b602082019050919050565b6000614b26603083615290565b9150614b3182615dc1565b604082019050919050565b614b45816153ed565b82525050565b614b54816153f7565b82525050565b6000614b6682846146f1565b915081905092915050565b6000614b7d82856146f1565b9150614b8982846146f1565b91508190509392505050565b6000602082019050614baa6000830184614634565b92915050565b6000604082019050614bc56000830185614625565b614bd26020830184614b3c565b9392505050565b6000606082019050614bee6000830186614634565b614bfb6020830185614634565b614c086040830184614b3c565b949350505050565b6000608082019050614c256000830187614634565b614c326020830186614634565b614c3f6040830185614b3c565b8181036060830152614c518184614670565b905095945050505050565b600061010082019050614c72600083018b614634565b8181036020830152614c84818a6146b8565b9050614c936040830189614634565b8181036060830152614ca581886146b8565b90508181036080830152614cb981876146b8565b9050614cc860a0830186614b3c565b614cd560c0830185614b3c565b81810360e0830152614ce781846146b8565b90509998505050505050505050565b6000602082019050614d0b6000830184614643565b92915050565b6000608082019050614d266000830187614652565b614d336020830186614b4b565b614d406040830185614652565b614d4d6060830184614652565b95945050505050565b6000602082019050614d6b6000830184614661565b92915050565b6000602082019050614d8660008301846146a9565b92915050565b60006020820190508181036000830152614da681846146b8565b905092915050565b60006040820190508181036000830152614dc881856146b8565b9050614dd76020830184614b3c565b9392505050565b60006020820190508181036000830152614df781614722565b9050919050565b60006020820190508181036000830152614e1781614745565b9050919050565b60006020820190508181036000830152614e3781614768565b9050919050565b60006020820190508181036000830152614e578161478b565b9050919050565b60006020820190508181036000830152614e77816147ae565b9050919050565b60006020820190508181036000830152614e97816147d1565b9050919050565b60006020820190508181036000830152614eb7816147f4565b9050919050565b60006020820190508181036000830152614ed781614817565b9050919050565b60006020820190508181036000830152614ef78161483a565b9050919050565b60006020820190508181036000830152614f178161485d565b9050919050565b60006020820190508181036000830152614f3781614880565b9050919050565b60006020820190508181036000830152614f57816148a3565b9050919050565b60006020820190508181036000830152614f77816148c6565b9050919050565b60006020820190508181036000830152614f97816148e9565b9050919050565b60006020820190508181036000830152614fb78161490c565b9050919050565b60006020820190508181036000830152614fd78161492f565b9050919050565b60006020820190508181036000830152614ff781614952565b9050919050565b6000602082019050818103600083015261501781614975565b9050919050565b6000602082019050818103600083015261503781614998565b9050919050565b60006020820190508181036000830152615057816149bb565b9050919050565b60006020820190508181036000830152615077816149de565b9050919050565b6000602082019050818103600083015261509781614a01565b9050919050565b600060208201905081810360008301526150b781614a24565b9050919050565b600060208201905081810360008301526150d781614a47565b9050919050565b600060208201905081810360008301526150f781614a6a565b9050919050565b6000602082019050818103600083015261511781614a8d565b9050919050565b6000602082019050818103600083015261513781614ab0565b9050919050565b6000602082019050818103600083015261515781614ad3565b9050919050565b6000602082019050818103600083015261517781614af6565b9050919050565b6000602082019050818103600083015261519781614b19565b9050919050565b60006020820190506151b36000830184614b3c565b92915050565b60006040820190506151ce6000830185614b3c565b6151db6020830184614b3c565b9392505050565b60006151ec6151fd565b90506151f882826154d2565b919050565b6000604051905090565b600067ffffffffffffffff8211156152225761522161560a565b5b61522b82615639565b9050602081019050919050565b600067ffffffffffffffff8211156152535761525261560a565b5b61525c82615639565b9050602081019050919050565b600081519050919050565b600081519050919050565b600082825260208201905092915050565b600082825260208201905092915050565b600081905092915050565b60006152b7826153ed565b91506152c2836153ed565b9250827fffffffffffffffffffffffffffffffffffffffffffffffffffffffffffffffff038211156152f7576152f661557d565b5b828201905092915050565b600061530d826153ed565b9150615318836153ed565b925082615328576153276155ac565b5b828204905092915050565b600061533e826153ed565b9150615349836153ed565b92508282101561535c5761535b61557d565b5b828203905092915050565b6000615372826153cd565b9050919050565b6000615384826153cd565b9050919050565b60008115159050919050565b6000819050919050565b60007fffffffff0000000000000000000000000000000000000000000000000000000082169050919050565b600073ffffffffffffffffffffffffffffffffffffffff82169050919050565b6000819050919050565b600060ff82169050919050565b600061540f8261543a565b9050919050565b600061542182615428565b9050919050565b6000615433826153cd565b9050919050565b60006154458261544c565b9050919050565b6000615457826153cd565b9050919050565b82818337600083830152505050565b60005b8381101561548b578082015181840152602081019050615470565b8381111561549a576000848401525b50505050565b600060028204905060018216806154b857607f821691505b602082108114156154cc576154cb6155db565b5b50919050565b6154db82615639565b810181811067ffffffffffffffff821117156154fa576154f961560a565b5b80604052505050565b600061550e826153ed565b91507fffffffffffffffffffffffffffffffffffffffffffffffffffffffffffffffff8214156155415761554061557d565b5b600182019050919050565b6000615557826153ed565b9150615562836153ed565b925082615572576155716155ac565b5b828206905092915050565b7f4e487b7100000000000000000000000000000000000000000000000000000000600052601160045260246000fd5b7f4e487b7100000000000000000000000000000000000000000000000000000000600052601260045260246000fd5b7f4e487b7100000000000000000000000000000000000000000000000000000000600052602260045260246000fd5b7f4e487b7100000000000000000000000000000000000000000000000000000000600052604160045260246000fd5b6000601f19601f8301169050919050565b7f45434453413a20696e76616c6964207369676e61747572650000000000000000600082015250565b7f4552433732315061757361626c653a20746f6b656e207472616e73666572207760008201527f68696c6520706175736564000000000000000000000000000000000000000000602082015250565b7f5061757361626c653a206e6f7420706175736564000000000000000000000000600082015250565b7f45434453413a20696e76616c6964207369676e6174757265206c656e67746800600082015250565b7f455243373231456e756d657261626c653a206f776e657220696e646578206f7560008201527f74206f6620626f756e6473000000000000000000000000000000000000000000602082015250565b7f4552433732313a207472616e7366657220746f206e6f6e20455243373231526560008201527f63656976657220696d706c656d656e7465720000000000000000000000000000602082015250565b7f4f776e61626c653a206e6577206f776e657220697320746865207a65726f206160008201527f6464726573730000000000000000000000000000000000000000000000000000602082015250565b7f5844563a204d75737420686176652061207061796d656e742061646472657373600082015250565b7f4552433732313a20746f6b656e20616c7265616479206d696e74656400000000600082015250565b7f4552433732313a207472616e7366657220746f20746865207a65726f2061646460008201527f7265737300000000000000000000000000000000000000000000000000000000602082015250565b7f4552433732313a20617070726f766520746f2063616c6c657200000000000000600082015250565b7f45434453413a20696e76616c6964207369676e6174757265202773272076616c60008201527f7565000000000000000000000000000000000000000000000000000000000000602082015250565b7f4552433732313a206f70657261746f7220717565727920666f72206e6f6e657860008201527f697374656e7420746f6b656e0000000000000000000000000000000000000000602082015250565b7f5061757361626c653a2070617573656400000000000000000000000000000000600082015250565b7f4552433732313a20617070726f76652063616c6c6572206973206e6f74206f7760008201527f6e6572206e6f7220617070726f76656420666f7220616c6c0000000000000000602082015250565b7f4552433732313a2062616c616e636520717565727920666f7220746865207a6560008201527f726f206164647265737300000000000000000000000000000000000000000000602082015250565b7f4552433732313a206f776e657220717565727920666f72206e6f6e657869737460008201527f656e7420746f6b656e0000000000000000000000000000000000000000000000602082015250565b7f5844563a205472616e73666572206661696c656420666f72207265636970696560008201527f6e74000000000000000000000000000000000000000000000000000000000000602082015250565b7f45434453413a20696e76616c6964207369676e6174757265202776272076616c60008201527f7565000000000000000000000000000000000000000000000000000000000000602082015250565b7f4552433732313a206d696e7420746f20746865207a65726f2061646472657373600082015250565b7f5844563a20446f63756d656e74207769746820696e76616c696420737461747560008201527f7300000000000000000000000000000000000000000000000000000000000000602082015250565b7f4552433732313a20617070726f76656420717565727920666f72206e6f6e657860008201527f697374656e7420746f6b656e0000000000000000000000000000000000000000602082015250565b7f4f776e61626c653a2063616c6c6572206973206e6f7420746865206f776e6572600082015250565b7f4552433732313a207472616e73666572206f6620746f6b656e2074686174206960008201527f73206e6f74206f776e0000000000000000000000000000000000000000000000602082015250565b7f4552433732314d657461646174613a2055524920717565727920666f72206e6f60008201527f6e6578697374656e7420746f6b656e0000000000000000000000000000000000602082015250565b7f4552433732313a20617070726f76616c20746f2063757272656e74206f776e6560008201527f7200000000000000000000000000000000000000000000000000000000000000602082015250565b7f4552433732313a207472616e736665722063616c6c6572206973206e6f74206f60008201527f776e6572206e6f7220617070726f766564000000000000000000000000000000602082015250565b7f455243373231456e756d657261626c653a20676c6f62616c20696e646578206f60008201527f7574206f6620626f756e64730000000000000000000000000000000000000000602082015250565b7f5844563a205472616e73666572206661696c6564000000000000000000000000600082015250565b7f4552433732314275726e61626c653a2063616c6c6572206973206e6f74206f7760008201527f6e6572206e6f7220617070726f76656400000000000000000000000000000000602082015250565b615e1981615367565b8114615e2457600080fd5b50565b615e3081615379565b8114615e3b57600080fd5b50565b615e478161538b565b8114615e5257600080fd5b50565b615e5e81615397565b8114615e6957600080fd5b50565b615e75816153a1565b8114615e8057600080fd5b50565b615e8c816153ed565b8114615e9757600080fd5b5056fea26469706673582212201c003c2e1b3780f5ba4eb176cc66a95679b4cd85fe2c0eb82df35ab3b8b975ae64736f6c63430008040033",
  "immutableReferences": {},
  "source": "// SPDX-License-Identifier: MIT\npragma solidity ^0.8.0;\n\nimport \"./XDVController.sol\";\nimport \"@openzeppelin/contracts/token/ERC20/IERC20.sol\";\nimport \"@openzeppelin/contracts/token/ERC721/ERC721.sol\";\nimport \"@openzeppelin/contracts/token/ERC721/extensions/ERC721Burnable.sol\";\nimport \"@openzeppelin/contracts/token/ERC721/extensions/ERC721Pausable.sol\";\nimport \"@openzeppelin/contracts/token/ERC721/extensions/ERC721Enumerable.sol\";\nimport \"@openzeppelin/contracts/utils/Counters.sol\";\n\ncontract XDVToken is\n    XDVController,\n    ERC721Burnable,\n    ERC721Pausable,\n    ERC721Enumerable\n{\n    using Counters for Counters.Counter;\n\n    Counters.Counter private _tokenIds;\n    IERC20 public stablecoin;\n    uint256 public serviceFeeForPaymentAddress = 0;\n    uint256 public serviceFeeForContract = 0;\n    address public paymentAddress;\n    mapping(uint256 => string) public fileUri;\n\n    event Withdrawn(address indexed paymentAddress, uint256 amount);\n\n    event ServiceFeePaid(\n        uint256 indexed tokenId,\n        address indexed from,\n        address indexed paymentAddress,\n        uint256 paidToContract,\n        uint256 paidToPaymentAddress\n    );\n\n    /**\n     * XDV Data Token\n     */\n    constructor(address tokenERC20, address newPaymentAddress)\n        ERC721(\"XDV Platform 2 Token\", \"XDV\")\n    {\n        paymentAddress = newPaymentAddress;\n        stablecoin = IERC20(tokenERC20);\n    }\n\n    function setServiceFeeForPaymentAddress(uint256 _fee) public onlyOwner {\n        serviceFeeForPaymentAddress = _fee;\n    }\n\n    function setServiceFeeForContract(uint256 _fee) public onlyOwner {\n        serviceFeeForContract = _fee;\n    }\n\n    function setPaymentAddress(address newAddress) public onlyOwner {\n        paymentAddress = newAddress;\n    }\n\n    function supportsInterface(bytes4 interfaceId)\n        public\n        view\n        virtual\n        override(ERC721, ERC721Enumerable)\n        returns (bool)\n    {\n        return super.supportsInterface(interfaceId);\n    }\n\n    /**\n     * @dev Mints a XDV Data Token if whitelisted\n     * @return tokenId\n     */\n    function mint(\n        uint256 requestId,\n        address user,\n        address dataProvider,\n        string memory uri\n    ) public returns (uint256 tokenId) {\n        require(\n            minterDocumentRequests[dataProvider][requestId].status ==\n                uint256(DocumentMintingRequestStatus.REQUEST),\n            \"XDV: Document with invalid status\"\n        );\n        _tokenIds.increment();\n\n        uint256 newItemId = _tokenIds.current();\n        _safeMint(user, newItemId);\n        fileUri[newItemId] = uri;\n\n        // updates a request\n        minterDocumentRequests[dataProvider][requestId].status = uint256(\n            DocumentMintingRequestStatus.MINTED\n        );\n\n        minterCounter[dataProvider] = minterCounter[dataProvider]++;\n\n        return newItemId;\n    }\n\n    /**\n     * @dev Prevents the contract from working until `unpause()` is called.\n     * Used for Emergencies.\n     */\n    function pause() external onlyOwner {\n        _pause();\n    }\n\n    /**\n     * @dev If the contract is `paused()`, this will allow it to work again.\n     */\n    function unpause() external onlyOwner {\n        _unpause();\n    }\n\n    /**\n     * @dev Custom hook implementation.\n     */\n    function _beforeTokenTransfer(\n        address from,\n        address to,\n        uint256 tokenId\n    ) internal virtual override(ERC721, ERC721Pausable, ERC721Enumerable) {\n        // Token about to be burned.\n        if (to == address(0)) {\n            _paymentBeforeBurn(from, tokenId);\n        }\n\n        super._beforeTokenTransfer(from, to, tokenId);\n    }\n\n    /**\n     * @dev tries to execute the payment when the token is burned.\n     * Reverts if the payment procedure could not be completed.\n     */\n    function _paymentBeforeBurn(address tokenHolder, uint256 tokenId)\n        internal\n        virtual\n    {\n        require(\n            paymentAddress != address(0),\n            \"XDV: Must have a payment address\"\n        );\n\n        // Transfer tokens to pay service fee\n        require(\n            stablecoin.transferFrom(\n                tokenHolder,\n                address(this),\n                serviceFeeForContract\n            ),\n            \"XDV: Transfer failed for recipient\"\n        );\n        require(\n            stablecoin.transferFrom(\n                tokenHolder,\n                paymentAddress,\n                serviceFeeForPaymentAddress\n            ),\n            \"XDV: Transfer failed for recipient\"\n        );\n\n        emit ServiceFeePaid(\n            tokenId,\n            tokenHolder,\n            paymentAddress,\n            serviceFeeForContract,\n            serviceFeeForPaymentAddress\n        );\n    }\n\n    function withdrawBalance(address payable payee) public onlyOwner {\n        uint256 balance = stablecoin.balanceOf(address(this));\n\n        require(stablecoin.transfer(payee, balance), \"XDV: Transfer failed\");\n\n        emit Withdrawn(payee, balance);\n    }\n}\n",
  "sourcePath": "/Users/zubietaroberto/git/xdv-contracts-v2/contracts/contracts/XDVToken.sol",
  "compiler": {
    "name": "solc",
    "version": "0.8.4+commit.c7e474f2.Emscripten.clang"
  },
  "schemaVersion": "3.3.4",
  "updatedAt": "2021-04-30T17:56:19.024Z",
  "devdoc": {
    "kind": "dev",
    "methods": {
      "approve(address,uint256)": {
        "details": "See {IERC721-approve}."
      },
      "balanceOf(address)": {
        "details": "See {IERC721-balanceOf}."
      },
      "burn(uint256)": {
        "details": "Burns `tokenId`. See {ERC721-_burn}. Requirements: - The caller must own `tokenId` or be an approved operator."
      },
      "getApproved(uint256)": {
        "details": "See {IERC721-getApproved}."
      },
      "isApprovedForAll(address,address)": {
        "details": "See {IERC721-isApprovedForAll}."
      },
      "isValidSignature(bytes32,bytes)": {
        "details": "ERC-1271 Compatibility. This checks that the message signature was sent by the contract's owner. Inspired by this implementation: https://github.com/OpenZeppelin/openzeppelin-contracts/blob/master/contracts/mocks/ERC1271WalletMock.sol",
        "returns": {
          "magicValue": "either 0x00000000 for false or 0x1626ba7e for true. 0x1626ba7e == bytes4(keccak256(\"isValidSignature(bytes32,bytes)\")"
        }
      },
      "mint(uint256,address,address,string)": {
        "details": "Mints a XDV Data Token if whitelisted",
        "returns": {
          "tokenId": "tokenId"
        }
      },
      "name()": {
        "details": "See {IERC721Metadata-name}."
      },
      "owner()": {
        "details": "Returns the address of the current owner."
      },
      "ownerOf(uint256)": {
        "details": "See {IERC721-ownerOf}."
      },
      "pause()": {
        "details": "Prevents the contract from working until `unpause()` is called. Used for Emergencies."
      },
      "paused()": {
        "details": "Returns true if the contract is paused, and false otherwise."
      },
      "registerMinter(string,address,bool,uint256)": {
        "details": "Registers a data tokenization service"
      },
      "renounceOwnership()": {
        "details": "Leaves the contract without owner. It will not be possible to call `onlyOwner` functions anymore. Can only be called by the current owner. NOTE: Renouncing ownership will leave the contract without an owner, thereby removing any functionality that is only available to the owner."
      },
      "requestDataProviderService(string,address,string,string,string)": {
        "details": "User requests anchored document to be processed."
      },
      "safeTransferFrom(address,address,uint256)": {
        "details": "See {IERC721-safeTransferFrom}."
      },
      "safeTransferFrom(address,address,uint256,bytes)": {
        "details": "See {IERC721-safeTransferFrom}."
      },
      "setApprovalForAll(address,bool)": {
        "details": "See {IERC721-setApprovalForAll}."
      },
      "symbol()": {
        "details": "See {IERC721Metadata-symbol}."
      },
      "tokenByIndex(uint256)": {
        "details": "See {IERC721Enumerable-tokenByIndex}."
      },
      "tokenOfOwnerByIndex(address,uint256)": {
        "details": "See {IERC721Enumerable-tokenOfOwnerByIndex}."
      },
      "tokenURI(uint256)": {
        "details": "See {IERC721Metadata-tokenURI}."
      },
      "totalSupply()": {
        "details": "See {IERC721Enumerable-totalSupply}."
      },
      "transferFrom(address,address,uint256)": {
        "details": "See {IERC721-transferFrom}."
      },
      "transferOwnership(address)": {
        "details": "Transfers ownership of the contract to a new account (`newOwner`). Can only be called by the current owner."
      },
      "unpause()": {
        "details": "If the contract is `paused()`, this will allow it to work again."
      }
    },
    "version": 1
  },
  "userdoc": {
    "kind": "user",
    "methods": {
      "constructor": {
        "notice": "XDV Data Token"
      }
    },
    "version": 1
  }
}