{
  "contractName": "XDVToken",
  "abi": [
    {
      "inputs": [
        {
          "internalType": "address",
          "name": "tokenERC20",
          "type": "address"
        },
        {
          "internalType": "address",
          "name": "newPaymentAddress",
          "type": "address"
        }
      ],
      "stateMutability": "nonpayable",
      "type": "constructor"
    },
    {
      "anonymous": false,
      "inputs": [
        {
          "indexed": true,
          "internalType": "address",
          "name": "owner",
          "type": "address"
        },
        {
          "indexed": true,
          "internalType": "address",
          "name": "approved",
          "type": "address"
        },
        {
          "indexed": true,
          "internalType": "uint256",
          "name": "tokenId",
          "type": "uint256"
        }
      ],
      "name": "Approval",
      "type": "event"
    },
    {
      "anonymous": false,
      "inputs": [
        {
          "indexed": true,
          "internalType": "address",
          "name": "owner",
          "type": "address"
        },
        {
          "indexed": true,
          "internalType": "address",
          "name": "operator",
          "type": "address"
        },
        {
          "indexed": false,
          "internalType": "bool",
          "name": "approved",
          "type": "bool"
        }
      ],
      "name": "ApprovalForAll",
      "type": "event"
    },
    {
      "anonymous": false,
      "inputs": [
        {
          "indexed": true,
          "internalType": "address",
          "name": "user",
          "type": "address"
        },
        {
          "indexed": true,
          "internalType": "string",
          "name": "userDid",
          "type": "string"
        },
        {
          "indexed": false,
          "internalType": "string",
          "name": "documentURI",
          "type": "string"
        },
        {
          "indexed": false,
          "internalType": "uint256",
          "name": "id",
          "type": "uint256"
        }
      ],
      "name": "DocumentAnchored",
      "type": "event"
    },
    {
      "anonymous": false,
      "inputs": [
        {
          "indexed": true,
          "internalType": "address",
          "name": "minter",
          "type": "address"
        },
        {
          "indexed": false,
          "internalType": "string",
          "name": "name",
          "type": "string"
        }
      ],
      "name": "MinterRegistered",
      "type": "event"
    },
    {
      "anonymous": false,
      "inputs": [
        {
          "indexed": true,
          "internalType": "address",
          "name": "previousOwner",
          "type": "address"
        },
        {
          "indexed": true,
          "internalType": "address",
          "name": "newOwner",
          "type": "address"
        }
      ],
      "name": "OwnershipTransferred",
      "type": "event"
    },
    {
      "anonymous": false,
      "inputs": [
        {
          "indexed": false,
          "internalType": "address",
          "name": "account",
          "type": "address"
        }
      ],
      "name": "Paused",
      "type": "event"
    },
    {
      "anonymous": false,
      "inputs": [
        {
          "indexed": true,
          "internalType": "uint256",
          "name": "tokenId",
          "type": "uint256"
        },
        {
          "indexed": true,
          "internalType": "address",
          "name": "from",
          "type": "address"
        },
        {
          "indexed": true,
          "internalType": "address",
          "name": "paymentAddress",
          "type": "address"
        },
        {
          "indexed": false,
          "internalType": "uint256",
          "name": "paidToContract",
          "type": "uint256"
        },
        {
          "indexed": false,
          "internalType": "uint256",
          "name": "paidToPaymentAddress",
          "type": "uint256"
        }
      ],
      "name": "ServiceFeePaid",
      "type": "event"
    },
    {
      "anonymous": false,
      "inputs": [
        {
          "indexed": true,
          "internalType": "address",
          "name": "from",
          "type": "address"
        },
        {
          "indexed": true,
          "internalType": "address",
          "name": "to",
          "type": "address"
        },
        {
          "indexed": true,
          "internalType": "uint256",
          "name": "tokenId",
          "type": "uint256"
        }
      ],
      "name": "Transfer",
      "type": "event"
    },
    {
      "anonymous": false,
      "inputs": [
        {
          "indexed": false,
          "internalType": "address",
          "name": "account",
          "type": "address"
        }
      ],
      "name": "Unpaused",
      "type": "event"
    },
    {
      "anonymous": false,
      "inputs": [
        {
          "indexed": true,
          "internalType": "address",
          "name": "paymentAddress",
          "type": "address"
        },
        {
          "indexed": false,
          "internalType": "uint256",
          "name": "amount",
          "type": "uint256"
        }
      ],
      "name": "Withdrawn",
      "type": "event"
    },
    {
      "inputs": [
        {
          "internalType": "address",
          "name": "to",
          "type": "address"
        },
        {
          "internalType": "uint256",
          "name": "tokenId",
          "type": "uint256"
        }
      ],
      "name": "approve",
      "outputs": [],
      "stateMutability": "nonpayable",
      "type": "function"
    },
    {
      "inputs": [
        {
          "internalType": "address",
          "name": "owner",
          "type": "address"
        }
      ],
      "name": "balanceOf",
      "outputs": [
        {
          "internalType": "uint256",
          "name": "",
          "type": "uint256"
        }
      ],
      "stateMutability": "view",
      "type": "function"
    },
    {
      "inputs": [
        {
          "internalType": "uint256",
          "name": "tokenId",
          "type": "uint256"
        }
      ],
      "name": "burn",
      "outputs": [],
      "stateMutability": "nonpayable",
      "type": "function"
    },
    {
      "inputs": [
        {
          "internalType": "uint256",
          "name": "",
          "type": "uint256"
        }
      ],
      "name": "fileUri",
      "outputs": [
        {
          "internalType": "string",
          "name": "",
          "type": "string"
        }
      ],
      "stateMutability": "view",
      "type": "function"
    },
    {
      "inputs": [
        {
          "internalType": "uint256",
          "name": "tokenId",
          "type": "uint256"
        }
      ],
      "name": "getApproved",
      "outputs": [
        {
          "internalType": "address",
          "name": "",
          "type": "address"
        }
      ],
      "stateMutability": "view",
      "type": "function"
    },
    {
      "inputs": [
        {
          "internalType": "address",
          "name": "owner",
          "type": "address"
        },
        {
          "internalType": "address",
          "name": "operator",
          "type": "address"
        }
      ],
      "name": "isApprovedForAll",
      "outputs": [
        {
          "internalType": "bool",
          "name": "",
          "type": "bool"
        }
      ],
      "stateMutability": "view",
      "type": "function"
    },
    {
      "inputs": [
        {
          "internalType": "bytes32",
          "name": "hash",
          "type": "bytes32"
        },
        {
          "internalType": "bytes",
          "name": "signature",
          "type": "bytes"
        }
      ],
      "name": "isValidSignature",
      "outputs": [
        {
          "internalType": "bytes4",
          "name": "magicValue",
          "type": "bytes4"
        }
      ],
      "stateMutability": "view",
      "type": "function"
    },
    {
      "inputs": [
        {
          "internalType": "address",
          "name": "",
          "type": "address"
        }
      ],
      "name": "minterCounter",
      "outputs": [
        {
          "internalType": "uint256",
          "name": "",
          "type": "uint256"
        }
      ],
      "stateMutability": "view",
      "type": "function"
    },
    {
      "inputs": [
        {
          "internalType": "address",
          "name": "",
          "type": "address"
        }
      ],
      "name": "minterDocumentRequestCounter",
      "outputs": [
        {
          "internalType": "uint256",
          "name": "",
          "type": "uint256"
        }
      ],
      "stateMutability": "view",
      "type": "function"
    },
    {
      "inputs": [
        {
          "internalType": "address",
          "name": "",
          "type": "address"
        },
        {
          "internalType": "uint256",
          "name": "",
          "type": "uint256"
        }
      ],
      "name": "minterDocumentRequests",
      "outputs": [
        {
          "internalType": "address",
          "name": "user",
          "type": "address"
        },
        {
          "internalType": "string",
          "name": "userDid",
          "type": "string"
        },
        {
          "internalType": "address",
          "name": "toMinter",
          "type": "address"
        },
        {
          "internalType": "string",
          "name": "toMinterDid",
          "type": "string"
        },
        {
          "internalType": "string",
          "name": "documentURI",
          "type": "string"
        },
        {
          "internalType": "uint256",
          "name": "status",
          "type": "uint256"
        },
        {
          "internalType": "string",
          "name": "description",
          "type": "string"
        }
      ],
      "stateMutability": "view",
      "type": "function"
    },
    {
      "inputs": [],
      "name": "name",
      "outputs": [
        {
          "internalType": "string",
          "name": "",
          "type": "string"
        }
      ],
      "stateMutability": "view",
      "type": "function"
    },
    {
      "inputs": [],
      "name": "owner",
      "outputs": [
        {
          "internalType": "address",
          "name": "",
          "type": "address"
        }
      ],
      "stateMutability": "view",
      "type": "function"
    },
    {
      "inputs": [
        {
          "internalType": "uint256",
          "name": "tokenId",
          "type": "uint256"
        }
      ],
      "name": "ownerOf",
      "outputs": [
        {
          "internalType": "address",
          "name": "",
          "type": "address"
        }
      ],
      "stateMutability": "view",
      "type": "function"
    },
    {
      "inputs": [],
      "name": "paused",
      "outputs": [
        {
          "internalType": "bool",
          "name": "",
          "type": "bool"
        }
      ],
      "stateMutability": "view",
      "type": "function"
    },
    {
      "inputs": [],
      "name": "paymentAddress",
      "outputs": [
        {
          "internalType": "address",
          "name": "",
          "type": "address"
        }
      ],
      "stateMutability": "view",
      "type": "function"
    },
    {
      "inputs": [
        {
          "internalType": "string",
          "name": "name",
          "type": "string"
        },
        {
          "internalType": "address",
          "name": "paymentAddress",
          "type": "address"
        },
        {
          "internalType": "bool",
          "name": "userHasKyc",
          "type": "bool"
        },
        {
          "internalType": "uint256",
          "name": "feeStructure",
          "type": "uint256"
        }
      ],
      "name": "registerMinter",
      "outputs": [
        {
          "internalType": "uint256",
          "name": "",
          "type": "uint256"
        }
      ],
      "stateMutability": "nonpayable",
      "type": "function"
    },
    {
      "inputs": [],
      "name": "renounceOwnership",
      "outputs": [],
      "stateMutability": "nonpayable",
      "type": "function"
    },
    {
      "inputs": [
        {
          "internalType": "string",
          "name": "minterDid",
          "type": "string"
        },
        {
          "internalType": "address",
          "name": "minterAddress",
          "type": "address"
        },
        {
          "internalType": "string",
          "name": "userDid",
          "type": "string"
        },
        {
          "internalType": "string",
          "name": "documentURI",
          "type": "string"
        },
        {
          "internalType": "string",
          "name": "description",
          "type": "string"
        }
      ],
      "name": "requestDataProviderService",
      "outputs": [
        {
          "internalType": "uint256",
          "name": "",
          "type": "uint256"
        }
      ],
      "stateMutability": "nonpayable",
      "type": "function"
    },
    {
      "inputs": [
        {
          "internalType": "address",
          "name": "from",
          "type": "address"
        },
        {
          "internalType": "address",
          "name": "to",
          "type": "address"
        },
        {
          "internalType": "uint256",
          "name": "tokenId",
          "type": "uint256"
        }
      ],
      "name": "safeTransferFrom",
      "outputs": [],
      "stateMutability": "nonpayable",
      "type": "function"
    },
    {
      "inputs": [
        {
          "internalType": "address",
          "name": "from",
          "type": "address"
        },
        {
          "internalType": "address",
          "name": "to",
          "type": "address"
        },
        {
          "internalType": "uint256",
          "name": "tokenId",
          "type": "uint256"
        },
        {
          "internalType": "bytes",
          "name": "_data",
          "type": "bytes"
        }
      ],
      "name": "safeTransferFrom",
      "outputs": [],
      "stateMutability": "nonpayable",
      "type": "function"
    },
    {
      "inputs": [],
      "name": "serviceFeeForContract",
      "outputs": [
        {
          "internalType": "uint256",
          "name": "",
          "type": "uint256"
        }
      ],
      "stateMutability": "view",
      "type": "function"
    },
    {
      "inputs": [],
      "name": "serviceFeeForPaymentAddress",
      "outputs": [
        {
          "internalType": "uint256",
          "name": "",
          "type": "uint256"
        }
      ],
      "stateMutability": "view",
      "type": "function"
    },
    {
      "inputs": [
        {
          "internalType": "address",
          "name": "operator",
          "type": "address"
        },
        {
          "internalType": "bool",
          "name": "approved",
          "type": "bool"
        }
      ],
      "name": "setApprovalForAll",
      "outputs": [],
      "stateMutability": "nonpayable",
      "type": "function"
    },
    {
      "inputs": [],
      "name": "stablecoin",
      "outputs": [
        {
          "internalType": "contract IERC20",
          "name": "",
          "type": "address"
        }
      ],
      "stateMutability": "view",
      "type": "function"
    },
    {
      "inputs": [],
      "name": "symbol",
      "outputs": [
        {
          "internalType": "string",
          "name": "",
          "type": "string"
        }
      ],
      "stateMutability": "view",
      "type": "function"
    },
    {
      "inputs": [
        {
          "internalType": "uint256",
          "name": "index",
          "type": "uint256"
        }
      ],
      "name": "tokenByIndex",
      "outputs": [
        {
          "internalType": "uint256",
          "name": "",
          "type": "uint256"
        }
      ],
      "stateMutability": "view",
      "type": "function"
    },
    {
      "inputs": [
        {
          "internalType": "address",
          "name": "owner",
          "type": "address"
        },
        {
          "internalType": "uint256",
          "name": "index",
          "type": "uint256"
        }
      ],
      "name": "tokenOfOwnerByIndex",
      "outputs": [
        {
          "internalType": "uint256",
          "name": "",
          "type": "uint256"
        }
      ],
      "stateMutability": "view",
      "type": "function"
    },
    {
      "inputs": [
        {
          "internalType": "uint256",
          "name": "tokenId",
          "type": "uint256"
        }
      ],
      "name": "tokenURI",
      "outputs": [
        {
          "internalType": "string",
          "name": "",
          "type": "string"
        }
      ],
      "stateMutability": "view",
      "type": "function"
    },
    {
      "inputs": [],
      "name": "totalSupply",
      "outputs": [
        {
          "internalType": "uint256",
          "name": "",
          "type": "uint256"
        }
      ],
      "stateMutability": "view",
      "type": "function"
    },
    {
      "inputs": [
        {
          "internalType": "address",
          "name": "from",
          "type": "address"
        },
        {
          "internalType": "address",
          "name": "to",
          "type": "address"
        },
        {
          "internalType": "uint256",
          "name": "tokenId",
          "type": "uint256"
        }
      ],
      "name": "transferFrom",
      "outputs": [],
      "stateMutability": "nonpayable",
      "type": "function"
    },
    {
      "inputs": [
        {
          "internalType": "address",
          "name": "newOwner",
          "type": "address"
        }
      ],
      "name": "transferOwnership",
      "outputs": [],
      "stateMutability": "nonpayable",
      "type": "function"
    },
    {
      "inputs": [
        {
          "internalType": "uint256",
          "name": "_fee",
          "type": "uint256"
        }
      ],
      "name": "setServiceFeeForPaymentAddress",
      "outputs": [],
      "stateMutability": "nonpayable",
      "type": "function"
    },
    {
      "inputs": [
        {
          "internalType": "uint256",
          "name": "_fee",
          "type": "uint256"
        }
      ],
      "name": "setServiceFeeForContract",
      "outputs": [],
      "stateMutability": "nonpayable",
      "type": "function"
    },
    {
      "inputs": [
        {
          "internalType": "address",
          "name": "newAddress",
          "type": "address"
        }
      ],
      "name": "setPaymentAddress",
      "outputs": [],
      "stateMutability": "nonpayable",
      "type": "function"
    },
    {
      "inputs": [
        {
          "internalType": "bytes4",
          "name": "interfaceId",
          "type": "bytes4"
        }
      ],
      "name": "supportsInterface",
      "outputs": [
        {
          "internalType": "bool",
          "name": "",
          "type": "bool"
        }
      ],
      "stateMutability": "view",
      "type": "function"
    },
    {
      "inputs": [
        {
          "internalType": "uint256",
          "name": "requestId",
          "type": "uint256"
        },
        {
          "internalType": "address",
          "name": "user",
          "type": "address"
        },
        {
          "internalType": "address",
          "name": "dataProvider",
          "type": "address"
        },
        {
          "internalType": "string",
          "name": "uri",
          "type": "string"
        }
      ],
      "name": "mint",
      "outputs": [
        {
          "internalType": "uint256",
          "name": "tokenId",
          "type": "uint256"
        }
      ],
      "stateMutability": "nonpayable",
      "type": "function"
    },
    {
      "inputs": [],
      "name": "pause",
      "outputs": [],
      "stateMutability": "nonpayable",
      "type": "function"
    },
    {
      "inputs": [],
      "name": "unpause",
      "outputs": [],
      "stateMutability": "nonpayable",
      "type": "function"
    },
    {
      "inputs": [
        {
          "internalType": "address payable",
          "name": "payee",
          "type": "address"
        }
      ],
      "name": "withdrawBalance",
      "outputs": [],
      "stateMutability": "nonpayable",
      "type": "function"
    }
  ],
  "bytecode": "0x6080604052600060125560006013553480156200001b57600080fd5b50604051620061ea380380620061ea833981810160405281019062000041919062000305565b6040518060400160405280601481526020017f58445620506c6174666f726d203220546f6b656e0000000000000000000000008152506040518060400160405280600381526020017f58445600000000000000000000000000000000000000000000000000000000008152506000620000bf6200023660201b60201c565b9050806000806101000a81548173ffffffffffffffffffffffffffffffffffffffff021916908373ffffffffffffffffffffffffffffffffffffffff1602179055508073ffffffffffffffffffffffffffffffffffffffff16600073ffffffffffffffffffffffffffffffffffffffff167f8be0079c531659141344cd1fd0a4f28419497f9722a3daafe3b4186f6b6457e060405160405180910390a3508160059080519060200190620001759291906200023e565b5080600690805190602001906200018e9291906200023e565b5050506000600b60006101000a81548160ff02191690831515021790555080601460006101000a81548173ffffffffffffffffffffffffffffffffffffffff021916908373ffffffffffffffffffffffffffffffffffffffff16021790555081601160006101000a81548173ffffffffffffffffffffffffffffffffffffffff021916908373ffffffffffffffffffffffffffffffffffffffff1602179055505050620003f9565b600033905090565b8280546200024c906200037a565b90600052602060002090601f016020900481019282620002705760008555620002bc565b82601f106200028b57805160ff1916838001178555620002bc565b82800160010185558215620002bc579182015b82811115620002bb5782518255916020019190600101906200029e565b5b509050620002cb9190620002cf565b5090565b5b80821115620002ea576000816000905550600101620002d0565b5090565b600081519050620002ff81620003df565b92915050565b600080604083850312156200031957600080fd5b60006200032985828601620002ee565b92505060206200033c85828601620002ee565b9150509250929050565b600062000353826200035a565b9050919050565b600073ffffffffffffffffffffffffffffffffffffffff82169050919050565b600060028204905060018216806200039357607f821691505b60208210811415620003aa57620003a9620003b0565b5b50919050565b7f4e487b7100000000000000000000000000000000000000000000000000000000600052602260045260246000fd5b620003ea8162000346565b8114620003f657600080fd5b50565b615de180620004096000396000f3fe608060405234801561001057600080fd5b506004361061023d5760003560e01c806366563b4f1161013b578063a22cb465116100b8578063e53ae1021161007c578063e53ae102146106f0578063e985e9c51461070e578063e9cbd8221461073e578063f2fde38b1461075c578063f83d360d146107785761023d565b8063a22cb4651461064e578063b86be2ca1461066a578063b88d4fde14610686578063c014b9da146106a2578063c87b56dd146106c05761023d565b8063761901bb116100ff578063761901bb146105a85780638456cb59146105d85780638da5cb5b146105e257806395d89b41146106005780639acd083e1461061e5761023d565b806366563b4f146104ec5780636efaa6991461051c57806370a0823114610552578063715018a614610582578063756af45f1461058c5761023d565b80632f745c59116101c95780634f6ccce71161018d5780634f6ccce7146104345780635c975abb146104645780635e1e100414610482578063633423be1461049e5780636352211e146104bc5761023d565b80632f745c59146103925780633f4ba83a146103c257806342842e0e146103cc57806342966c68146103e8578063435da82a146104045761023d565b80631626ba7e116102105780631626ba7e146102dc57806318160ddd1461030c57806323b872dd1461032a5780632aa222c8146103465780632c078e8d146103765761023d565b806301ffc9a71461024257806306fdde0314610272578063081812fc14610290578063095ea7b3146102c0575b600080fd5b61025c6004803603810190610257919061438c565b6107a8565b6040516102699190614c9c565b60405180910390f35b61027a6107ba565b6040516102879190614d32565b60405180910390f35b6102aa60048036038101906102a59190614530565b61084c565b6040516102b79190614b4a565b60405180910390f35b6102da60048036038101906102d591906142d3565b6108d1565b005b6102f660048036038101906102f19190614338565b6109e9565b6040516103039190614cfc565b60405180910390f35b610314610a4e565b6040516103219190615124565b60405180910390f35b610344600480360381019061033f91906141cd565b610a5b565b005b610360600480360381019061035b919061413f565b610abb565b60405161036d9190615124565b60405180910390f35b610390600480360381019061038b9190614530565b610ad3565b005b6103ac60048036038101906103a791906142d3565b610b59565b6040516103b99190615124565b60405180910390f35b6103ca610bfe565b005b6103e660048036038101906103e191906141cd565b610c84565b005b61040260048036038101906103fd9190614530565b610ca4565b005b61041e60048036038101906104199190614530565b610d00565b60405161042b9190614d32565b60405180910390f35b61044e60048036038101906104499190614530565b610da0565b60405161045b9190615124565b60405180910390f35b61046c610e37565b6040516104799190614c9c565b60405180910390f35b61049c6004803603810190610497919061413f565b610e4e565b005b6104a6610f0e565b6040516104b39190614b4a565b60405180910390f35b6104d660048036038101906104d19190614530565b610f34565b6040516104e39190614b4a565b60405180910390f35b610506600480360381019061050191906143de565b610fe6565b6040516105139190615124565b60405180910390f35b610536600480360381019061053191906142d3565b61126a565b6040516105499796959493929190614c11565b60405180910390f35b61056c6004803603810190610567919061413f565b611519565b6040516105799190615124565b60405180910390f35b61058a6115d1565b005b6105a660048036038101906105a19190614168565b61170b565b005b6105c260048036038101906105bd919061413f565b611976565b6040516105cf9190615124565b60405180910390f35b6105e061198e565b005b6105ea611a14565b6040516105f79190614b4a565b60405180910390f35b610608611a3d565b6040516106159190614d32565b60405180910390f35b61063860048036038101906106339190614582565b611acf565b6040516106459190615124565b60405180910390f35b61066860048036038101906106639190614297565b611d1c565b005b610684600480360381019061067f9190614530565b611e9d565b005b6106a0600480360381019061069b919061421c565b611f23565b005b6106aa611f85565b6040516106b79190615124565b60405180910390f35b6106da60048036038101906106d59190614530565b611f8b565b6040516106e79190614d32565b60405180910390f35b6106f8612032565b6040516107059190615124565b60405180910390f35b61072860048036038101906107239190614191565b612038565b6040516107359190614c9c565b60405180910390f35b6107466120cc565b6040516107539190614d17565b60405180910390f35b6107766004803603810190610771919061413f565b6120f2565b005b610792600480360381019061078d9190614459565b61229b565b60405161079f9190615124565b60405180910390f35b60006107b38261259f565b9050919050565b6060600580546107c990615426565b80601f01602080910402602001604051908101604052809291908181526020018280546107f590615426565b80156108425780601f1061081757610100808354040283529160200191610842565b820191906000526020600020905b81548152906001019060200180831161082557829003601f168201915b5050505050905090565b600061085782612619565b610896576040517f08c379a000000000000000000000000000000000000000000000000000000000815260040161088d90614fe4565b60405180910390fd5b6009600083815260200190815260200160002060009054906101000a900473ffffffffffffffffffffffffffffffffffffffff169050919050565b60006108dc82610f34565b90508073ffffffffffffffffffffffffffffffffffffffff168373ffffffffffffffffffffffffffffffffffffffff16141561094d576040517f08c379a000000000000000000000000000000000000000000000000000000000815260040161094490615084565b60405180910390fd5b8073ffffffffffffffffffffffffffffffffffffffff1661096c612685565b73ffffffffffffffffffffffffffffffffffffffff16148061099b575061099a81610995612685565b612038565b5b6109da576040517f08c379a00000000000000000000000000000000000000000000000000000000081526004016109d190614f44565b60405180910390fd5b6109e4838361268d565b505050565b6000806109f68484612746565b9050610a00611a14565b73ffffffffffffffffffffffffffffffffffffffff168173ffffffffffffffffffffffffffffffffffffffff1614610a3c57600060e01b610a45565b631626ba7e60e01b5b91505092915050565b6000600e80549050905090565b610a6c610a66612685565b82612810565b610aab576040517f08c379a0000000000000000000000000000000000000000000000000000000008152600401610aa2906150a4565b60405180910390fd5b610ab68383836128ee565b505050565b60026020528060005260406000206000915090505481565b610adb612685565b73ffffffffffffffffffffffffffffffffffffffff16610af9611a14565b73ffffffffffffffffffffffffffffffffffffffff1614610b4f576040517f08c379a0000000000000000000000000000000000000000000000000000000008152600401610b4690615004565b60405180910390fd5b8060138190555050565b6000610b6483611519565b8210610ba5576040517f08c379a0000000000000000000000000000000000000000000000000000000008152600401610b9c90614e04565b60405180910390fd5b600c60008473ffffffffffffffffffffffffffffffffffffffff1673ffffffffffffffffffffffffffffffffffffffff168152602001908152602001600020600083815260200190815260200160002054905092915050565b610c06612685565b73ffffffffffffffffffffffffffffffffffffffff16610c24611a14565b73ffffffffffffffffffffffffffffffffffffffff1614610c7a576040517f08c379a0000000000000000000000000000000000000000000000000000000008152600401610c7190615004565b60405180910390fd5b610c82612b4a565b565b610c9f83838360405180602001604052806000815250611f23565b505050565b610cb5610caf612685565b82612810565b610cf4576040517f08c379a0000000000000000000000000000000000000000000000000000000008152600401610ceb90615104565b60405180910390fd5b610cfd81612bec565b50565b60156020528060005260406000206000915090508054610d1f90615426565b80601f0160208091040260200160405190810160405280929190818152602001828054610d4b90615426565b8015610d985780601f10610d6d57610100808354040283529160200191610d98565b820191906000526020600020905b815481529060010190602001808311610d7b57829003601f168201915b505050505081565b6000610daa610a4e565b8210610deb576040517f08c379a0000000000000000000000000000000000000000000000000000000008152600401610de2906150c4565b60405180910390fd5b600e8281548110610e25577f4e487b7100000000000000000000000000000000000000000000000000000000600052603260045260246000fd5b90600052602060002001549050919050565b6000600b60009054906101000a900460ff16905090565b610e56612685565b73ffffffffffffffffffffffffffffffffffffffff16610e74611a14565b73ffffffffffffffffffffffffffffffffffffffff1614610eca576040517f08c379a0000000000000000000000000000000000000000000000000000000008152600401610ec190615004565b60405180910390fd5b80601460006101000a81548173ffffffffffffffffffffffffffffffffffffffff021916908373ffffffffffffffffffffffffffffffffffffffff16021790555050565b601460009054906101000a900473ffffffffffffffffffffffffffffffffffffffff1681565b6000806007600084815260200190815260200160002060009054906101000a900473ffffffffffffffffffffffffffffffffffffffff169050600073ffffffffffffffffffffffffffffffffffffffff168173ffffffffffffffffffffffffffffffffffffffff161415610fdd576040517f08c379a0000000000000000000000000000000000000000000000000000000008152600401610fd490614f84565b60405180910390fd5b80915050919050565b6000600160003373ffffffffffffffffffffffffffffffffffffffff1673ffffffffffffffffffffffffffffffffffffffff168152602001908152602001600020600081548092919061103890615489565b91905055506040518060c001604052808681526020018573ffffffffffffffffffffffffffffffffffffffff16815260200184151581526020018381526020013073ffffffffffffffffffffffffffffffffffffffff16815260200160011515815250600460003373ffffffffffffffffffffffffffffffffffffffff1673ffffffffffffffffffffffffffffffffffffffff16815260200190815260200160002060008201518160000190805190602001906110f6929190613f0f565b5060208201518160010160006101000a81548173ffffffffffffffffffffffffffffffffffffffff021916908373ffffffffffffffffffffffffffffffffffffffff16021790555060408201518160010160146101000a81548160ff0219169083151502179055506060820151816002015560808201518160030160006101000a81548173ffffffffffffffffffffffffffffffffffffffff021916908373ffffffffffffffffffffffffffffffffffffffff16021790555060a08201518160030160146101000a81548160ff0219169083151502179055509050503373ffffffffffffffffffffffffffffffffffffffff167fdd49a7e572b5c7638971bc6a10724835256bbb03ca4187ce5fa77a2bf3716a76866040516112189190614d32565b60405180910390a2600160003373ffffffffffffffffffffffffffffffffffffffff1673ffffffffffffffffffffffffffffffffffffffff168152602001908152602001600020549050949350505050565b6003602052816000526040600020602052806000526040600020600091509150508060000160009054906101000a900473ffffffffffffffffffffffffffffffffffffffff16908060010180546112c090615426565b80601f01602080910402602001604051908101604052809291908181526020018280546112ec90615426565b80156113395780601f1061130e57610100808354040283529160200191611339565b820191906000526020600020905b81548152906001019060200180831161131c57829003601f168201915b5050505050908060020160009054906101000a900473ffffffffffffffffffffffffffffffffffffffff169080600301805461137490615426565b80601f01602080910402602001604051908101604052809291908181526020018280546113a090615426565b80156113ed5780601f106113c2576101008083540402835291602001916113ed565b820191906000526020600020905b8154815290600101906020018083116113d057829003601f168201915b50505050509080600401805461140290615426565b80601f016020809104026020016040519081016040528092919081815260200182805461142e90615426565b801561147b5780601f106114505761010080835404028352916020019161147b565b820191906000526020600020905b81548152906001019060200180831161145e57829003601f168201915b50505050509080600501549080600601805461149690615426565b80601f01602080910402602001604051908101604052809291908181526020018280546114c290615426565b801561150f5780601f106114e45761010080835404028352916020019161150f565b820191906000526020600020905b8154815290600101906020018083116114f257829003601f168201915b5050505050905087565b60008073ffffffffffffffffffffffffffffffffffffffff168273ffffffffffffffffffffffffffffffffffffffff16141561158a576040517f08c379a000000000000000000000000000000000000000000000000000000000815260040161158190614f64565b60405180910390fd5b600860008373ffffffffffffffffffffffffffffffffffffffff1673ffffffffffffffffffffffffffffffffffffffff168152602001908152602001600020549050919050565b6115d9612685565b73ffffffffffffffffffffffffffffffffffffffff166115f7611a14565b73ffffffffffffffffffffffffffffffffffffffff161461164d576040517f08c379a000000000000000000000000000000000000000000000000000000000815260040161164490615004565b60405180910390fd5b600073ffffffffffffffffffffffffffffffffffffffff1660008054906101000a900473ffffffffffffffffffffffffffffffffffffffff1673ffffffffffffffffffffffffffffffffffffffff167f8be0079c531659141344cd1fd0a4f28419497f9722a3daafe3b4186f6b6457e060405160405180910390a360008060006101000a81548173ffffffffffffffffffffffffffffffffffffffff021916908373ffffffffffffffffffffffffffffffffffffffff160217905550565b611713612685565b73ffffffffffffffffffffffffffffffffffffffff16611731611a14565b73ffffffffffffffffffffffffffffffffffffffff1614611787576040517f08c379a000000000000000000000000000000000000000000000000000000000815260040161177e90615004565b60405180910390fd5b6000601160009054906101000a900473ffffffffffffffffffffffffffffffffffffffff1673ffffffffffffffffffffffffffffffffffffffff166370a08231306040518263ffffffff1660e01b81526004016117e49190614b4a565b60206040518083038186803b1580156117fc57600080fd5b505afa158015611810573d6000803e3d6000fd5b505050506040513d601f19601f820116820180604052508101906118349190614559565b9050601160009054906101000a900473ffffffffffffffffffffffffffffffffffffffff1673ffffffffffffffffffffffffffffffffffffffff1663a9059cbb83836040518363ffffffff1660e01b8152600401611893929190614b65565b602060405180830381600087803b1580156118ad57600080fd5b505af11580156118c1573d6000803e3d6000fd5b505050506040513d601f19601f820116820180604052508101906118e5919061430f565b611924576040517f08c379a000000000000000000000000000000000000000000000000000000000815260040161191b906150e4565b60405180910390fd5b8173ffffffffffffffffffffffffffffffffffffffff167f7084f5476618d8e60b11ef0d7d3f06914655adb8793e28ff7f018d4c76d505d58260405161196a9190615124565b60405180910390a25050565b60016020528060005260406000206000915090505481565b611996612685565b73ffffffffffffffffffffffffffffffffffffffff166119b4611a14565b73ffffffffffffffffffffffffffffffffffffffff1614611a0a576040517f08c379a0000000000000000000000000000000000000000000000000000000008152600401611a0190615004565b60405180910390fd5b611a12612cfd565b565b60008060009054906101000a900473ffffffffffffffffffffffffffffffffffffffff16905090565b606060068054611a4c90615426565b80601f0160208091040260200160405190810160405280929190818152602001828054611a7890615426565b8015611ac55780601f10611a9a57610100808354040283529160200191611ac5565b820191906000526020600020905b815481529060010190602001808311611aa857829003601f168201915b5050505050905090565b6000806002811115611b0a577f4e487b7100000000000000000000000000000000000000000000000000000000600052602160045260246000fd5b600360008573ffffffffffffffffffffffffffffffffffffffff1673ffffffffffffffffffffffffffffffffffffffff16815260200190815260200160002060008781526020019081526020016000206005015414611b9e576040517f08c379a0000000000000000000000000000000000000000000000000000000008152600401611b9590615044565b60405180910390fd5b611ba86010612da0565b6000611bb46010612db6565b9050611bc08582612dc4565b82601560008381526020019081526020016000209080519060200190611be7929190613f0f565b5060016002811115611c22577f4e487b7100000000000000000000000000000000000000000000000000000000600052602160045260246000fd5b600360008673ffffffffffffffffffffffffffffffffffffffff1673ffffffffffffffffffffffffffffffffffffffff168152602001908152602001600020600088815260200190815260200160002060050181905550600160008573ffffffffffffffffffffffffffffffffffffffff1673ffffffffffffffffffffffffffffffffffffffff1681526020019081526020016000206000815480929190611cc990615489565b91905055600160008673ffffffffffffffffffffffffffffffffffffffff1673ffffffffffffffffffffffffffffffffffffffff1681526020019081526020016000208190555080915050949350505050565b611d24612685565b73ffffffffffffffffffffffffffffffffffffffff168273ffffffffffffffffffffffffffffffffffffffff161415611d92576040517f08c379a0000000000000000000000000000000000000000000000000000000008152600401611d8990614ec4565b60405180910390fd5b80600a6000611d9f612685565b73ffffffffffffffffffffffffffffffffffffffff1673ffffffffffffffffffffffffffffffffffffffff16815260200190815260200160002060008473ffffffffffffffffffffffffffffffffffffffff1673ffffffffffffffffffffffffffffffffffffffff16815260200190815260200160002060006101000a81548160ff0219169083151502179055508173ffffffffffffffffffffffffffffffffffffffff16611e4c612685565b73ffffffffffffffffffffffffffffffffffffffff167f17307eab39ab6107e8899845ad3d59bd9653f200f220920489ca2b5937696c3183604051611e919190614c9c565b60405180910390a35050565b611ea5612685565b73ffffffffffffffffffffffffffffffffffffffff16611ec3611a14565b73ffffffffffffffffffffffffffffffffffffffff1614611f19576040517f08c379a0000000000000000000000000000000000000000000000000000000008152600401611f1090615004565b60405180910390fd5b8060128190555050565b611f34611f2e612685565b83612810565b611f73576040517f08c379a0000000000000000000000000000000000000000000000000000000008152600401611f6a906150a4565b60405180910390fd5b611f7f84848484612de2565b50505050565b60125481565b6060611f9682612619565b611fd5576040517f08c379a0000000000000000000000000000000000000000000000000000000008152600401611fcc90615064565b60405180910390fd5b6000611fdf612e3e565b90506000815111611fff576040518060200160405280600081525061202a565b8061200984612e55565b60405160200161201a929190614b26565b6040516020818303038152906040525b915050919050565b60135481565b6000600a60008473ffffffffffffffffffffffffffffffffffffffff1673ffffffffffffffffffffffffffffffffffffffff16815260200190815260200160002060008373ffffffffffffffffffffffffffffffffffffffff1673ffffffffffffffffffffffffffffffffffffffff16815260200190815260200160002060009054906101000a900460ff16905092915050565b601160009054906101000a900473ffffffffffffffffffffffffffffffffffffffff1681565b6120fa612685565b73ffffffffffffffffffffffffffffffffffffffff16612118611a14565b73ffffffffffffffffffffffffffffffffffffffff161461216e576040517f08c379a000000000000000000000000000000000000000000000000000000000815260040161216590615004565b60405180910390fd5b600073ffffffffffffffffffffffffffffffffffffffff168173ffffffffffffffffffffffffffffffffffffffff1614156121de576040517f08c379a00000000000000000000000000000000000000000000000000000000081526004016121d590614e44565b60405180910390fd5b8073ffffffffffffffffffffffffffffffffffffffff1660008054906101000a900473ffffffffffffffffffffffffffffffffffffffff1673ffffffffffffffffffffffffffffffffffffffff167f8be0079c531659141344cd1fd0a4f28419497f9722a3daafe3b4186f6b6457e060405160405180910390a3806000806101000a81548173ffffffffffffffffffffffffffffffffffffffff021916908373ffffffffffffffffffffffffffffffffffffffff16021790555050565b600080600260008773ffffffffffffffffffffffffffffffffffffffff1673ffffffffffffffffffffffffffffffffffffffff1681526020019081526020016000205490506040518060e001604052803373ffffffffffffffffffffffffffffffffffffffff1681526020018681526020018773ffffffffffffffffffffffffffffffffffffffff1681526020018881526020018581526020016000600281111561236f577f4e487b7100000000000000000000000000000000000000000000000000000000600052602160045260246000fd5b815260200184815250600360008873ffffffffffffffffffffffffffffffffffffffff1673ffffffffffffffffffffffffffffffffffffffff168152602001908152602001600020600083815260200190815260200160002060008201518160000160006101000a81548173ffffffffffffffffffffffffffffffffffffffff021916908373ffffffffffffffffffffffffffffffffffffffff160217905550602082015181600101908051906020019061242b929190613f0f565b5060408201518160020160006101000a81548173ffffffffffffffffffffffffffffffffffffffff021916908373ffffffffffffffffffffffffffffffffffffffff160217905550606082015181600301908051906020019061248f929190613f0f565b5060808201518160040190805190602001906124ac929190613f0f565b5060a0820151816005015560c08201518160060190805190602001906124d3929190613f0f565b50905050600260008773ffffffffffffffffffffffffffffffffffffffff1673ffffffffffffffffffffffffffffffffffffffff168152602001908152602001600020600081548092919061252790615489565b91905055508460405161253a9190614b0f565b60405180910390203373ffffffffffffffffffffffffffffffffffffffff167f0a007e579f0793671747216eab1061026d102ff0f66e876d2edaa6277ad53e66868460405161258a929190614d54565b60405180910390a38091505095945050505050565b60007f780e9d63000000000000000000000000000000000000000000000000000000007bffffffffffffffffffffffffffffffffffffffffffffffffffffffff1916827bffffffffffffffffffffffffffffffffffffffffffffffffffffffff19161480612612575061261182613002565b5b9050919050565b60008073ffffffffffffffffffffffffffffffffffffffff166007600084815260200190815260200160002060009054906101000a900473ffffffffffffffffffffffffffffffffffffffff1673ffffffffffffffffffffffffffffffffffffffff1614159050919050565b600033905090565b816009600083815260200190815260200160002060006101000a81548173ffffffffffffffffffffffffffffffffffffffff021916908373ffffffffffffffffffffffffffffffffffffffff160217905550808273ffffffffffffffffffffffffffffffffffffffff1661270083610f34565b73ffffffffffffffffffffffffffffffffffffffff167f8c5be1e5ebec7d5bd14f71427d1e84f3dd0314c0f7b2291e5b200ac8c7c3b92560405160405180910390a45050565b600080600080604185511415612773576020850151925060408501519150606085015160001a90506127f9565b6040855114156127bd576040850151602086015193507f7fffffffffffffffffffffffffffffffffffffffffffffffffffffffffffffff81169250601b8160ff1c019150506127f8565b6040517f08c379a00000000000000000000000000000000000000000000000000000000081526004016127ef90614de4565b60405180910390fd5b5b612805868285856130e4565b935050505092915050565b600061281b82612619565b61285a576040517f08c379a000000000000000000000000000000000000000000000000000000000815260040161285190614f04565b60405180910390fd5b600061286583610f34565b90508073ffffffffffffffffffffffffffffffffffffffff168473ffffffffffffffffffffffffffffffffffffffff1614806128d457508373ffffffffffffffffffffffffffffffffffffffff166128bc8461084c565b73ffffffffffffffffffffffffffffffffffffffff16145b806128e557506128e48185612038565b5b91505092915050565b8273ffffffffffffffffffffffffffffffffffffffff1661290e82610f34565b73ffffffffffffffffffffffffffffffffffffffff1614612964576040517f08c379a000000000000000000000000000000000000000000000000000000000815260040161295b90615024565b60405180910390fd5b600073ffffffffffffffffffffffffffffffffffffffff168273ffffffffffffffffffffffffffffffffffffffff1614156129d4576040517f08c379a00000000000000000000000000000000000000000000000000000000081526004016129cb90614ea4565b60405180910390fd5b6129df83838361326f565b6129ea60008261268d565b6001600860008573ffffffffffffffffffffffffffffffffffffffff1673ffffffffffffffffffffffffffffffffffffffff1681526020019081526020016000206000828254612a3a91906152b9565b925050819055506001600860008473ffffffffffffffffffffffffffffffffffffffff1673ffffffffffffffffffffffffffffffffffffffff1681526020019081526020016000206000828254612a919190615232565b92505081905550816007600083815260200190815260200160002060006101000a81548173ffffffffffffffffffffffffffffffffffffffff021916908373ffffffffffffffffffffffffffffffffffffffff160217905550808273ffffffffffffffffffffffffffffffffffffffff168473ffffffffffffffffffffffffffffffffffffffff167fddf252ad1be2c89b69c2b068fc378daa952ba7f163c4a11628f55a4df523b3ef60405160405180910390a4505050565b612b52610e37565b612b91576040517f08c379a0000000000000000000000000000000000000000000000000000000008152600401612b8890614dc4565b60405180910390fd5b6000600b60006101000a81548160ff0219169083151502179055507f5db9ee0a495bf2e6ff9c91a7834c1ba4fdd244a5e8aa4e537bd38aeae4b073aa612bd5612685565b604051612be29190614b4a565b60405180910390a1565b6000612bf782610f34565b9050612c058160008461326f565b612c1060008361268d565b6001600860008373ffffffffffffffffffffffffffffffffffffffff1673ffffffffffffffffffffffffffffffffffffffff1681526020019081526020016000206000828254612c6091906152b9565b925050819055506007600083815260200190815260200160002060006101000a81549073ffffffffffffffffffffffffffffffffffffffff021916905581600073ffffffffffffffffffffffffffffffffffffffff168273ffffffffffffffffffffffffffffffffffffffff167fddf252ad1be2c89b69c2b068fc378daa952ba7f163c4a11628f55a4df523b3ef60405160405180910390a45050565b612d05610e37565b15612d45576040517f08c379a0000000000000000000000000000000000000000000000000000000008152600401612d3c90614f24565b60405180910390fd5b6001600b60006101000a81548160ff0219169083151502179055507f62e78cea01bee320cd4e420270b5ea74000d11b0c9f74754ebdbfc544b05a258612d89612685565b604051612d969190614b4a565b60405180910390a1565b6001816000016000828254019250508190555050565b600081600001549050919050565b612dde8282604051806020016040528060008152506132bf565b5050565b612ded8484846128ee565b612df98484848461331a565b612e38576040517f08c379a0000000000000000000000000000000000000000000000000000000008152600401612e2f90614e24565b60405180910390fd5b50505050565b606060405180602001604052806000815250905090565b60606000821415612e9d576040518060400160405280600181526020017f30000000000000000000000000000000000000000000000000000000000000008152509050612ffd565b600082905060005b60008214612ecf578080612eb890615489565b915050600a82612ec89190615288565b9150612ea5565b60008167ffffffffffffffff811115612f11577f4e487b7100000000000000000000000000000000000000000000000000000000600052604160045260246000fd5b6040519080825280601f01601f191660200182016040528015612f435781602001600182028036833780820191505090505b5090505b60008514612ff657600182612f5c91906152b9565b9150600a85612f6b91906154d2565b6030612f779190615232565b60f81b818381518110612fb3577f4e487b7100000000000000000000000000000000000000000000000000000000600052603260045260246000fd5b60200101907effffffffffffffffffffffffffffffffffffffffffffffffffffffffffffff1916908160001a905350600a85612fef9190615288565b9450612f47565b8093505050505b919050565b60007f80ac58cd000000000000000000000000000000000000000000000000000000007bffffffffffffffffffffffffffffffffffffffffffffffffffffffff1916827bffffffffffffffffffffffffffffffffffffffffffffffffffffffff191614806130cd57507f5b5e139f000000000000000000000000000000000000000000000000000000007bffffffffffffffffffffffffffffffffffffffffffffffffffffffff1916827bffffffffffffffffffffffffffffffffffffffffffffffffffffffff1916145b806130dd57506130dc826134b1565b5b9050919050565b60007f7fffffffffffffffffffffffffffffff5d576e7357a4501ddfe92f46681b20a08260001c111561314c576040517f08c379a000000000000000000000000000000000000000000000000000000000815260040161314390614ee4565b60405180910390fd5b601b8460ff1614806131615750601c8460ff16145b6131a0576040517f08c379a000000000000000000000000000000000000000000000000000000000815260040161319790614fa4565b60405180910390fd5b6000600186868686604051600081526020016040526040516131c59493929190614cb7565b6020604051602081039080840390855afa1580156131e7573d6000803e3d6000fd5b505050602060405103519050600073ffffffffffffffffffffffffffffffffffffffff168173ffffffffffffffffffffffffffffffffffffffff161415613263576040517f08c379a000000000000000000000000000000000000000000000000000000000815260040161325a90614d84565b60405180910390fd5b80915050949350505050565b600073ffffffffffffffffffffffffffffffffffffffff168273ffffffffffffffffffffffffffffffffffffffff1614156132af576132ae838261351b565b5b6132ba838383613845565b505050565b6132c98383613959565b6132d6600084848461331a565b613315576040517f08c379a000000000000000000000000000000000000000000000000000000000815260040161330c90614e24565b60405180910390fd5b505050565b600061333b8473ffffffffffffffffffffffffffffffffffffffff16613b27565b156134a4578373ffffffffffffffffffffffffffffffffffffffff1663150b7a02613364612685565b8786866040518563ffffffff1660e01b81526004016133869493929190614bc5565b602060405180830381600087803b1580156133a057600080fd5b505af19250505080156133d157506040513d601f19601f820116820180604052508101906133ce91906143b5565b60015b613454573d8060008114613401576040519150601f19603f3d011682016040523d82523d6000602084013e613406565b606091505b5060008151141561344c576040517f08c379a000000000000000000000000000000000000000000000000000000000815260040161344390614e24565b60405180910390fd5b805181602001fd5b63150b7a0260e01b7bffffffffffffffffffffffffffffffffffffffffffffffffffffffff1916817bffffffffffffffffffffffffffffffffffffffffffffffffffffffff1916149150506134a9565b600190505b949350505050565b60007f01ffc9a7000000000000000000000000000000000000000000000000000000007bffffffffffffffffffffffffffffffffffffffffffffffffffffffff1916827bffffffffffffffffffffffffffffffffffffffffffffffffffffffff1916149050919050565b600073ffffffffffffffffffffffffffffffffffffffff16601460009054906101000a900473ffffffffffffffffffffffffffffffffffffffff1673ffffffffffffffffffffffffffffffffffffffff1614156135ad576040517f08c379a00000000000000000000000000000000000000000000000000000000081526004016135a490614e64565b60405180910390fd5b601160009054906101000a900473ffffffffffffffffffffffffffffffffffffffff1673ffffffffffffffffffffffffffffffffffffffff166323b872dd83306013546040518463ffffffff1660e01b815260040161360e93929190614b8e565b602060405180830381600087803b15801561362857600080fd5b505af115801561363c573d6000803e3d6000fd5b505050506040513d601f19601f82011682018060405250810190613660919061430f565b61369f576040517f08c379a0000000000000000000000000000000000000000000000000000000008152600401613696906150e4565b60405180910390fd5b601160009054906101000a900473ffffffffffffffffffffffffffffffffffffffff1673ffffffffffffffffffffffffffffffffffffffff166323b872dd83601460009054906101000a900473ffffffffffffffffffffffffffffffffffffffff166012546040518463ffffffff1660e01b815260040161372293929190614b8e565b602060405180830381600087803b15801561373c57600080fd5b505af1158015613750573d6000803e3d6000fd5b505050506040513d601f19601f82011682018060405250810190613774919061430f565b6137b3576040517f08c379a00000000000000000000000000000000000000000000000000000000081526004016137aa906150e4565b60405180910390fd5b601460009054906101000a900473ffffffffffffffffffffffffffffffffffffffff1673ffffffffffffffffffffffffffffffffffffffff168273ffffffffffffffffffffffffffffffffffffffff16827fbe88f4b50295cd4ba6297b8faffa2e54364bd9520682ecdfa7ac6f44b931e99460135460125460405161383992919061513f565b60405180910390a45050565b613850838383613b3a565b600073ffffffffffffffffffffffffffffffffffffffff168373ffffffffffffffffffffffffffffffffffffffff1614156138935761388e81613b92565b6138d2565b8173ffffffffffffffffffffffffffffffffffffffff168373ffffffffffffffffffffffffffffffffffffffff16146138d1576138d08382613bdb565b5b5b600073ffffffffffffffffffffffffffffffffffffffff168273ffffffffffffffffffffffffffffffffffffffff1614156139155761391081613d48565b613954565b8273ffffffffffffffffffffffffffffffffffffffff168273ffffffffffffffffffffffffffffffffffffffff1614613953576139528282613e8b565b5b5b505050565b600073ffffffffffffffffffffffffffffffffffffffff168273ffffffffffffffffffffffffffffffffffffffff1614156139c9576040517f08c379a00000000000000000000000000000000000000000000000000000000081526004016139c090614fc4565b60405180910390fd5b6139d281612619565b15613a12576040517f08c379a0000000000000000000000000000000000000000000000000000000008152600401613a0990614e84565b60405180910390fd5b613a1e6000838361326f565b6001600860008473ffffffffffffffffffffffffffffffffffffffff1673ffffffffffffffffffffffffffffffffffffffff1681526020019081526020016000206000828254613a6e9190615232565b92505081905550816007600083815260200190815260200160002060006101000a81548173ffffffffffffffffffffffffffffffffffffffff021916908373ffffffffffffffffffffffffffffffffffffffff160217905550808273ffffffffffffffffffffffffffffffffffffffff16600073ffffffffffffffffffffffffffffffffffffffff167fddf252ad1be2c89b69c2b068fc378daa952ba7f163c4a11628f55a4df523b3ef60405160405180910390a45050565b600080823b905060008111915050919050565b613b45838383613f0a565b613b4d610e37565b15613b8d576040517f08c379a0000000000000000000000000000000000000000000000000000000008152600401613b8490614da4565b60405180910390fd5b505050565b600e80549050600f600083815260200190815260200160002081905550600e81908060018154018082558091505060019003906000526020600020016000909190919091505550565b60006001613be884611519565b613bf291906152b9565b90506000600d6000848152602001908152602001600020549050818114613cd7576000600c60008673ffffffffffffffffffffffffffffffffffffffff1673ffffffffffffffffffffffffffffffffffffffff168152602001908152602001600020600084815260200190815260200160002054905080600c60008773ffffffffffffffffffffffffffffffffffffffff1673ffffffffffffffffffffffffffffffffffffffff16815260200190815260200160002060008481526020019081526020016000208190555081600d600083815260200190815260200160002081905550505b600d600084815260200190815260200160002060009055600c60008573ffffffffffffffffffffffffffffffffffffffff1673ffffffffffffffffffffffffffffffffffffffff16815260200190815260200160002060008381526020019081526020016000206000905550505050565b60006001600e80549050613d5c91906152b9565b90506000600f60008481526020019081526020016000205490506000600e8381548110613db2577f4e487b7100000000000000000000000000000000000000000000000000000000600052603260045260246000fd5b9060005260206000200154905080600e8381548110613dfa577f4e487b7100000000000000000000000000000000000000000000000000000000600052603260045260246000fd5b906000526020600020018190555081600f600083815260200190815260200160002081905550600f600085815260200190815260200160002060009055600e805480613e6f577f4e487b7100000000000000000000000000000000000000000000000000000000600052603160045260246000fd5b6001900381819060005260206000200160009055905550505050565b6000613e9683611519565b905081600c60008573ffffffffffffffffffffffffffffffffffffffff1673ffffffffffffffffffffffffffffffffffffffff16815260200190815260200160002060008381526020019081526020016000208190555080600d600084815260200190815260200160002081905550505050565b505050565b828054613f1b90615426565b90600052602060002090601f016020900481019282613f3d5760008555613f84565b82601f10613f5657805160ff1916838001178555613f84565b82800160010185558215613f84579182015b82811115613f83578251825591602001919060010190613f68565b5b509050613f919190613f95565b5090565b5b80821115613fae576000816000905550600101613f96565b5090565b6000613fc5613fc08461518d565b615168565b905082815260208101848484011115613fdd57600080fd5b613fe88482856153e4565b509392505050565b6000614003613ffe846151be565b615168565b90508281526020810184848401111561401b57600080fd5b6140268482856153e4565b509392505050565b60008135905061403d81615d21565b92915050565b60008135905061405281615d38565b92915050565b60008135905061406781615d4f565b92915050565b60008151905061407c81615d4f565b92915050565b60008135905061409181615d66565b92915050565b6000813590506140a681615d7d565b92915050565b6000815190506140bb81615d7d565b92915050565b600082601f8301126140d257600080fd5b81356140e2848260208601613fb2565b91505092915050565b600082601f8301126140fc57600080fd5b813561410c848260208601613ff0565b91505092915050565b60008135905061412481615d94565b92915050565b60008151905061413981615d94565b92915050565b60006020828403121561415157600080fd5b600061415f8482850161402e565b91505092915050565b60006020828403121561417a57600080fd5b600061418884828501614043565b91505092915050565b600080604083850312156141a457600080fd5b60006141b28582860161402e565b92505060206141c38582860161402e565b9150509250929050565b6000806000606084860312156141e257600080fd5b60006141f08682870161402e565b93505060206142018682870161402e565b925050604061421286828701614115565b9150509250925092565b6000806000806080858703121561423257600080fd5b60006142408782880161402e565b94505060206142518782880161402e565b935050604061426287828801614115565b925050606085013567ffffffffffffffff81111561427f57600080fd5b61428b878288016140c1565b91505092959194509250565b600080604083850312156142aa57600080fd5b60006142b88582860161402e565b92505060206142c985828601614058565b9150509250929050565b600080604083850312156142e657600080fd5b60006142f48582860161402e565b925050602061430585828601614115565b9150509250929050565b60006020828403121561432157600080fd5b600061432f8482850161406d565b91505092915050565b6000806040838503121561434b57600080fd5b600061435985828601614082565b925050602083013567ffffffffffffffff81111561437657600080fd5b614382858286016140c1565b9150509250929050565b60006020828403121561439e57600080fd5b60006143ac84828501614097565b91505092915050565b6000602082840312156143c757600080fd5b60006143d5848285016140ac565b91505092915050565b600080600080608085870312156143f457600080fd5b600085013567ffffffffffffffff81111561440e57600080fd5b61441a878288016140eb565b945050602061442b8782880161402e565b935050604061443c87828801614058565b925050606061444d87828801614115565b91505092959194509250565b600080600080600060a0868803121561447157600080fd5b600086013567ffffffffffffffff81111561448b57600080fd5b614497888289016140eb565b95505060206144a88882890161402e565b945050604086013567ffffffffffffffff8111156144c557600080fd5b6144d1888289016140eb565b935050606086013567ffffffffffffffff8111156144ee57600080fd5b6144fa888289016140eb565b925050608086013567ffffffffffffffff81111561451757600080fd5b614523888289016140eb565b9150509295509295909350565b60006020828403121561454257600080fd5b600061455084828501614115565b91505092915050565b60006020828403121561456b57600080fd5b60006145798482850161412a565b91505092915050565b6000806000806080858703121561459857600080fd5b60006145a687828801614115565b94505060206145b78782880161402e565b93505060406145c88782880161402e565b925050606085013567ffffffffffffffff8111156145e557600080fd5b6145f1878288016140eb565b91505092959194509250565b6146068161538a565b82525050565b614615816152ed565b82525050565b61462481615311565b82525050565b6146338161531d565b82525050565b61464281615327565b82525050565b6000614653826151ef565b61465d8185615205565b935061466d8185602086016153f3565b614676816155bf565b840191505092915050565b61468a8161539c565b82525050565b600061469b826151fa565b6146a58185615216565b93506146b58185602086016153f3565b6146be816155bf565b840191505092915050565b60006146d4826151fa565b6146de8185615227565b93506146ee8185602086016153f3565b80840191505092915050565b6000614707601883615216565b9150614712826155d0565b602082019050919050565b600061472a602b83615216565b9150614735826155f9565b604082019050919050565b600061474d601483615216565b915061475882615648565b602082019050919050565b6000614770601f83615216565b915061477b82615671565b602082019050919050565b6000614793602b83615216565b915061479e8261569a565b604082019050919050565b60006147b6603283615216565b91506147c1826156e9565b604082019050919050565b60006147d9602683615216565b91506147e482615738565b604082019050919050565b60006147fc602083615216565b915061480782615787565b602082019050919050565b600061481f601c83615216565b915061482a826157b0565b602082019050919050565b6000614842602483615216565b915061484d826157d9565b604082019050919050565b6000614865601983615216565b915061487082615828565b602082019050919050565b6000614888602283615216565b915061489382615851565b604082019050919050565b60006148ab602c83615216565b91506148b6826158a0565b604082019050919050565b60006148ce601083615216565b91506148d9826158ef565b602082019050919050565b60006148f1603883615216565b91506148fc82615918565b604082019050919050565b6000614914602a83615216565b915061491f82615967565b604082019050919050565b6000614937602983615216565b9150614942826159b6565b604082019050919050565b600061495a602283615216565b915061496582615a05565b604082019050919050565b600061497d602083615216565b915061498882615a54565b602082019050919050565b60006149a0602c83615216565b91506149ab82615a7d565b604082019050919050565b60006149c3602083615216565b91506149ce82615acc565b602082019050919050565b60006149e6602983615216565b91506149f182615af5565b604082019050919050565b6000614a09601383615216565b9150614a1482615b44565b602082019050919050565b6000614a2c602f83615216565b9150614a3782615b6d565b604082019050919050565b6000614a4f602183615216565b9150614a5a82615bbc565b604082019050919050565b6000614a72603183615216565b9150614a7d82615c0b565b604082019050919050565b6000614a95602c83615216565b9150614aa082615c5a565b604082019050919050565b6000614ab8601483615216565b9150614ac382615ca9565b602082019050919050565b6000614adb603083615216565b9150614ae682615cd2565b604082019050919050565b614afa81615373565b82525050565b614b098161537d565b82525050565b6000614b1b82846146c9565b915081905092915050565b6000614b3282856146c9565b9150614b3e82846146c9565b91508190509392505050565b6000602082019050614b5f600083018461460c565b92915050565b6000604082019050614b7a60008301856145fd565b614b876020830184614af1565b9392505050565b6000606082019050614ba3600083018661460c565b614bb0602083018561460c565b614bbd6040830184614af1565b949350505050565b6000608082019050614bda600083018761460c565b614be7602083018661460c565b614bf46040830185614af1565b8181036060830152614c068184614648565b905095945050505050565b600060e082019050614c26600083018a61460c565b8181036020830152614c388189614690565b9050614c47604083018861460c565b8181036060830152614c598187614690565b90508181036080830152614c6d8186614690565b9050614c7c60a0830185614af1565b81810360c0830152614c8e8184614690565b905098975050505050505050565b6000602082019050614cb1600083018461461b565b92915050565b6000608082019050614ccc600083018761462a565b614cd96020830186614b00565b614ce6604083018561462a565b614cf3606083018461462a565b95945050505050565b6000602082019050614d116000830184614639565b92915050565b6000602082019050614d2c6000830184614681565b92915050565b60006020820190508181036000830152614d4c8184614690565b905092915050565b60006040820190508181036000830152614d6e8185614690565b9050614d7d6020830184614af1565b9392505050565b60006020820190508181036000830152614d9d816146fa565b9050919050565b60006020820190508181036000830152614dbd8161471d565b9050919050565b60006020820190508181036000830152614ddd81614740565b9050919050565b60006020820190508181036000830152614dfd81614763565b9050919050565b60006020820190508181036000830152614e1d81614786565b9050919050565b60006020820190508181036000830152614e3d816147a9565b9050919050565b60006020820190508181036000830152614e5d816147cc565b9050919050565b60006020820190508181036000830152614e7d816147ef565b9050919050565b60006020820190508181036000830152614e9d81614812565b9050919050565b60006020820190508181036000830152614ebd81614835565b9050919050565b60006020820190508181036000830152614edd81614858565b9050919050565b60006020820190508181036000830152614efd8161487b565b9050919050565b60006020820190508181036000830152614f1d8161489e565b9050919050565b60006020820190508181036000830152614f3d816148c1565b9050919050565b60006020820190508181036000830152614f5d816148e4565b9050919050565b60006020820190508181036000830152614f7d81614907565b9050919050565b60006020820190508181036000830152614f9d8161492a565b9050919050565b60006020820190508181036000830152614fbd8161494d565b9050919050565b60006020820190508181036000830152614fdd81614970565b9050919050565b60006020820190508181036000830152614ffd81614993565b9050919050565b6000602082019050818103600083015261501d816149b6565b9050919050565b6000602082019050818103600083015261503d816149d9565b9050919050565b6000602082019050818103600083015261505d816149fc565b9050919050565b6000602082019050818103600083015261507d81614a1f565b9050919050565b6000602082019050818103600083015261509d81614a42565b9050919050565b600060208201905081810360008301526150bd81614a65565b9050919050565b600060208201905081810360008301526150dd81614a88565b9050919050565b600060208201905081810360008301526150fd81614aab565b9050919050565b6000602082019050818103600083015261511d81614ace565b9050919050565b60006020820190506151396000830184614af1565b92915050565b60006040820190506151546000830185614af1565b6151616020830184614af1565b9392505050565b6000615172615183565b905061517e8282615458565b919050565b6000604051905090565b600067ffffffffffffffff8211156151a8576151a7615590565b5b6151b1826155bf565b9050602081019050919050565b600067ffffffffffffffff8211156151d9576151d8615590565b5b6151e2826155bf565b9050602081019050919050565b600081519050919050565b600081519050919050565b600082825260208201905092915050565b600082825260208201905092915050565b600081905092915050565b600061523d82615373565b915061524883615373565b9250827fffffffffffffffffffffffffffffffffffffffffffffffffffffffffffffffff0382111561527d5761527c615503565b5b828201905092915050565b600061529382615373565b915061529e83615373565b9250826152ae576152ad615532565b5b828204905092915050565b60006152c482615373565b91506152cf83615373565b9250828210156152e2576152e1615503565b5b828203905092915050565b60006152f882615353565b9050919050565b600061530a82615353565b9050919050565b60008115159050919050565b6000819050919050565b60007fffffffff0000000000000000000000000000000000000000000000000000000082169050919050565b600073ffffffffffffffffffffffffffffffffffffffff82169050919050565b6000819050919050565b600060ff82169050919050565b6000615395826153c0565b9050919050565b60006153a7826153ae565b9050919050565b60006153b982615353565b9050919050565b60006153cb826153d2565b9050919050565b60006153dd82615353565b9050919050565b82818337600083830152505050565b60005b838110156154115780820151818401526020810190506153f6565b83811115615420576000848401525b50505050565b6000600282049050600182168061543e57607f821691505b6020821081141561545257615451615561565b5b50919050565b615461826155bf565b810181811067ffffffffffffffff821117156154805761547f615590565b5b80604052505050565b600061549482615373565b91507fffffffffffffffffffffffffffffffffffffffffffffffffffffffffffffffff8214156154c7576154c6615503565b5b600182019050919050565b60006154dd82615373565b91506154e883615373565b9250826154f8576154f7615532565b5b828206905092915050565b7f4e487b7100000000000000000000000000000000000000000000000000000000600052601160045260246000fd5b7f4e487b7100000000000000000000000000000000000000000000000000000000600052601260045260246000fd5b7f4e487b7100000000000000000000000000000000000000000000000000000000600052602260045260246000fd5b7f4e487b7100000000000000000000000000000000000000000000000000000000600052604160045260246000fd5b6000601f19601f8301169050919050565b7f45434453413a20696e76616c6964207369676e61747572650000000000000000600082015250565b7f4552433732315061757361626c653a20746f6b656e207472616e73666572207760008201527f68696c6520706175736564000000000000000000000000000000000000000000602082015250565b7f5061757361626c653a206e6f7420706175736564000000000000000000000000600082015250565b7f45434453413a20696e76616c6964207369676e6174757265206c656e67746800600082015250565b7f455243373231456e756d657261626c653a206f776e657220696e646578206f7560008201527f74206f6620626f756e6473000000000000000000000000000000000000000000602082015250565b7f4552433732313a207472616e7366657220746f206e6f6e20455243373231526560008201527f63656976657220696d706c656d656e7465720000000000000000000000000000602082015250565b7f4f776e61626c653a206e6577206f776e657220697320746865207a65726f206160008201527f6464726573730000000000000000000000000000000000000000000000000000602082015250565b7f5844563a204d75737420686176652061207061796d656e742061646472657373600082015250565b7f4552433732313a20746f6b656e20616c7265616479206d696e74656400000000600082015250565b7f4552433732313a207472616e7366657220746f20746865207a65726f2061646460008201527f7265737300000000000000000000000000000000000000000000000000000000602082015250565b7f4552433732313a20617070726f766520746f2063616c6c657200000000000000600082015250565b7f45434453413a20696e76616c6964207369676e6174757265202773272076616c60008201527f7565000000000000000000000000000000000000000000000000000000000000602082015250565b7f4552433732313a206f70657261746f7220717565727920666f72206e6f6e657860008201527f697374656e7420746f6b656e0000000000000000000000000000000000000000602082015250565b7f5061757361626c653a2070617573656400000000000000000000000000000000600082015250565b7f4552433732313a20617070726f76652063616c6c6572206973206e6f74206f7760008201527f6e6572206e6f7220617070726f76656420666f7220616c6c0000000000000000602082015250565b7f4552433732313a2062616c616e636520717565727920666f7220746865207a6560008201527f726f206164647265737300000000000000000000000000000000000000000000602082015250565b7f4552433732313a206f776e657220717565727920666f72206e6f6e657869737460008201527f656e7420746f6b656e0000000000000000000000000000000000000000000000602082015250565b7f45434453413a20696e76616c6964207369676e6174757265202776272076616c60008201527f7565000000000000000000000000000000000000000000000000000000000000602082015250565b7f4552433732313a206d696e7420746f20746865207a65726f2061646472657373600082015250565b7f4552433732313a20617070726f76656420717565727920666f72206e6f6e657860008201527f697374656e7420746f6b656e0000000000000000000000000000000000000000602082015250565b7f4f776e61626c653a2063616c6c6572206973206e6f7420746865206f776e6572600082015250565b7f4552433732313a207472616e73666572206f6620746f6b656e2074686174206960008201527f73206e6f74206f776e0000000000000000000000000000000000000000000000602082015250565b7f5844563a20496e76616c69642053746174757300000000000000000000000000600082015250565b7f4552433732314d657461646174613a2055524920717565727920666f72206e6f60008201527f6e6578697374656e7420746f6b656e0000000000000000000000000000000000602082015250565b7f4552433732313a20617070726f76616c20746f2063757272656e74206f776e6560008201527f7200000000000000000000000000000000000000000000000000000000000000602082015250565b7f4552433732313a207472616e736665722063616c6c6572206973206e6f74206f60008201527f776e6572206e6f7220617070726f766564000000000000000000000000000000602082015250565b7f455243373231456e756d657261626c653a20676c6f62616c20696e646578206f60008201527f7574206f6620626f756e64730000000000000000000000000000000000000000602082015250565b7f5844563a205472616e73666572206661696c6564000000000000000000000000600082015250565b7f4552433732314275726e61626c653a2063616c6c6572206973206e6f74206f7760008201527f6e6572206e6f7220617070726f76656400000000000000000000000000000000602082015250565b615d2a816152ed565b8114615d3557600080fd5b50565b615d41816152ff565b8114615d4c57600080fd5b50565b615d5881615311565b8114615d6357600080fd5b50565b615d6f8161531d565b8114615d7a57600080fd5b50565b615d8681615327565b8114615d9157600080fd5b50565b615d9d81615373565b8114615da857600080fd5b5056fea2646970667358221220ed15079f4f8822ba0e9fe250d241bc648a556381bc985ad9ed88a9b1b915671a64736f6c63430008040033",
  "immutableReferences": {},
  "source": "// SPDX-License-Identifier: MIT\npragma solidity ^0.8.0;\n\nimport \"./XDVController.sol\";\nimport \"@openzeppelin/contracts/token/ERC20/IERC20.sol\";\nimport \"@openzeppelin/contracts/token/ERC721/ERC721.sol\";\nimport \"@openzeppelin/contracts/token/ERC721/extensions/ERC721Burnable.sol\";\nimport \"@openzeppelin/contracts/token/ERC721/extensions/ERC721Pausable.sol\";\nimport \"@openzeppelin/contracts/token/ERC721/extensions/ERC721Enumerable.sol\";\nimport \"@openzeppelin/contracts/utils/Counters.sol\";\n\ncontract XDVToken is\n    XDVController,\n    ERC721Burnable,\n    ERC721Pausable,\n    ERC721Enumerable\n{\n    using Counters for Counters.Counter;\n\n    Counters.Counter private _tokenIds;\n    IERC20 public stablecoin;\n    uint256 public serviceFeeForPaymentAddress = 0;\n    uint256 public serviceFeeForContract = 0;\n    address public paymentAddress;\n    mapping(uint256 => string) public fileUri;\n\n    event Withdrawn(address indexed paymentAddress, uint256 amount);\n\n    event ServiceFeePaid(\n        uint256 indexed tokenId,\n        address indexed from,\n        address indexed paymentAddress,\n        uint256 paidToContract,\n        uint256 paidToPaymentAddress\n    );\n\n    /**\n     * XDV Data Token\n     */\n    constructor(address tokenERC20, address newPaymentAddress)\n        ERC721(\"XDV Platform 2 Token\", \"XDV\")\n    {\n        paymentAddress = newPaymentAddress;\n        stablecoin = IERC20(tokenERC20);\n    }\n\n    function setServiceFeeForPaymentAddress(uint256 _fee) public onlyOwner {\n        serviceFeeForPaymentAddress = _fee;\n    }\n\n    function setServiceFeeForContract(uint256 _fee) public onlyOwner {\n        serviceFeeForContract = _fee;\n    }\n\n    function setPaymentAddress(address newAddress) public onlyOwner {\n        paymentAddress = newAddress;\n    }\n\n    function supportsInterface(bytes4 interfaceId)\n        public\n        view\n        virtual\n        override(ERC721, ERC721Enumerable)\n        returns (bool)\n    {\n        return super.supportsInterface(interfaceId);\n    }\n\n    /**\n     * @dev Mints a XDV Data Token if whitelisted\n     * @return tokenId\n     */\n    function mint(\n        uint256 requestId,\n        address user,\n        address dataProvider,\n        string memory uri\n    ) public returns (uint256 tokenId) {\n        require(\n            minterDocumentRequests[dataProvider][requestId].status ==\n                uint256(DocumentMintingRequestStatus.REQUEST),\n            \"XDV: Invalid Status\"\n        );\n        _tokenIds.increment();\n\n        uint256 newItemId = _tokenIds.current();\n        _safeMint(user, newItemId);\n        fileUri[newItemId] = uri;\n\n        // updates a request\n        minterDocumentRequests[dataProvider][requestId].status = uint256(\n            DocumentMintingRequestStatus.MINTED\n        );\n\n        minterCounter[dataProvider] = minterCounter[dataProvider]++;\n\n        return newItemId;\n    }\n\n    /**\n     * @dev Prevents the contract from working until `unpause()` is called.\n     * Used for Emergencies.\n     */\n    function pause() external onlyOwner {\n        _pause();\n    }\n\n    /**\n     * @dev If the contract is `paused()`, this will allow it to work again.\n     */\n    function unpause() external onlyOwner {\n        _unpause();\n    }\n\n    /**\n     * @dev Custom hook implementation.\n     */\n    function _beforeTokenTransfer(\n        address from,\n        address to,\n        uint256 tokenId\n    ) internal virtual override(ERC721, ERC721Pausable, ERC721Enumerable) {\n        // Token about to be burned.\n        if (to == address(0)) {\n            _paymentBeforeBurn(from, tokenId);\n        }\n\n        super._beforeTokenTransfer(from, to, tokenId);\n    }\n\n    /**\n     * @dev tries to execute the payment when the token is burned.\n     * Reverts if the payment procedure could not be completed.\n     */\n    function _paymentBeforeBurn(address tokenHolder, uint256 tokenId)\n        internal\n        virtual\n    {\n        require(\n            paymentAddress != address(0),\n            \"XDV: Must have a payment address\"\n        );\n\n        // Transfer tokens to pay service fee\n        require(\n            stablecoin.transferFrom(\n                tokenHolder,\n                address(this),\n                serviceFeeForContract\n            ),\n            \"XDV: Transfer failed\"\n        );\n        require(\n            stablecoin.transferFrom(\n                tokenHolder,\n                paymentAddress,\n                serviceFeeForPaymentAddress\n            ),\n            \"XDV: Transfer failed\"\n        );\n\n        emit ServiceFeePaid(\n            tokenId,\n            tokenHolder,\n            paymentAddress,\n            serviceFeeForContract,\n            serviceFeeForPaymentAddress\n        );\n    }\n\n    function withdrawBalance(address payable payee) public onlyOwner {\n        uint256 balance = stablecoin.balanceOf(address(this));\n\n        require(stablecoin.transfer(payee, balance), \"XDV: Transfer failed\");\n\n        emit Withdrawn(payee, balance);\n    }\n}\n",
  "sourcePath": "/Users/zubietaroberto/git/xdv-contracts-v2/contracts/contracts/XDVToken.sol",
  "compiler": {
    "name": "solc",
    "version": "0.8.4+commit.c7e474f2.Emscripten.clang"
  },
  "schemaVersion": "3.3.4",
  "updatedAt": "2021-05-14T19:30:04.070Z",
  "devdoc": {
    "kind": "dev",
    "methods": {
      "approve(address,uint256)": {
        "details": "See {IERC721-approve}."
      },
      "balanceOf(address)": {
        "details": "See {IERC721-balanceOf}."
      },
      "burn(uint256)": {
        "details": "Burns `tokenId`. See {ERC721-_burn}. Requirements: - The caller must own `tokenId` or be an approved operator."
      },
      "getApproved(uint256)": {
        "details": "See {IERC721-getApproved}."
      },
      "isApprovedForAll(address,address)": {
        "details": "See {IERC721-isApprovedForAll}."
      },
      "isValidSignature(bytes32,bytes)": {
        "details": "ERC-1271 Compatibility. This checks that the message signature was sent by the contract's owner. Inspired by this implementation: https://github.com/OpenZeppelin/openzeppelin-contracts/blob/master/contracts/mocks/ERC1271WalletMock.sol",
        "returns": {
          "magicValue": "either 0x00000000 for false or 0x1626ba7e for true. 0x1626ba7e == bytes4(keccak256(\"isValidSignature(bytes32,bytes)\")"
        }
      },
      "mint(uint256,address,address,string)": {
        "details": "Mints a XDV Data Token if whitelisted",
        "returns": {
          "tokenId": "tokenId"
        }
      },
      "name()": {
        "details": "See {IERC721Metadata-name}."
      },
      "owner()": {
        "details": "Returns the address of the current owner."
      },
      "ownerOf(uint256)": {
        "details": "See {IERC721-ownerOf}."
      },
      "pause()": {
        "details": "Prevents the contract from working until `unpause()` is called. Used for Emergencies."
      },
      "paused()": {
        "details": "Returns true if the contract is paused, and false otherwise."
      },
      "registerMinter(string,address,bool,uint256)": {
        "details": "Registers a data tokenization service"
      },
      "renounceOwnership()": {
        "details": "Leaves the contract without owner. It will not be possible to call `onlyOwner` functions anymore. Can only be called by the current owner. NOTE: Renouncing ownership will leave the contract without an owner, thereby removing any functionality that is only available to the owner."
      },
      "requestDataProviderService(string,address,string,string,string)": {
        "details": "User requests anchored document to be processed."
      },
      "safeTransferFrom(address,address,uint256)": {
        "details": "See {IERC721-safeTransferFrom}."
      },
      "safeTransferFrom(address,address,uint256,bytes)": {
        "details": "See {IERC721-safeTransferFrom}."
      },
      "setApprovalForAll(address,bool)": {
        "details": "See {IERC721-setApprovalForAll}."
      },
      "symbol()": {
        "details": "See {IERC721Metadata-symbol}."
      },
      "tokenByIndex(uint256)": {
        "details": "See {IERC721Enumerable-tokenByIndex}."
      },
      "tokenOfOwnerByIndex(address,uint256)": {
        "details": "See {IERC721Enumerable-tokenOfOwnerByIndex}."
      },
      "tokenURI(uint256)": {
        "details": "See {IERC721Metadata-tokenURI}."
      },
      "totalSupply()": {
        "details": "See {IERC721Enumerable-totalSupply}."
      },
      "transferFrom(address,address,uint256)": {
        "details": "See {IERC721-transferFrom}."
      },
      "transferOwnership(address)": {
        "details": "Transfers ownership of the contract to a new account (`newOwner`). Can only be called by the current owner."
      },
      "unpause()": {
        "details": "If the contract is `paused()`, this will allow it to work again."
      }
    },
    "version": 1
  },
  "userdoc": {
    "kind": "user",
    "methods": {
      "constructor": {
        "notice": "XDV Data Token"
      }
    },
    "version": 1
  }
}